{
	"contracts/InsurancePolicy.sol": {
		"InsurancePolicy": {
			"abi": [
				{
					"anonymous": false,
					"inputs": [
						{
							"indexed": true,
							"internalType": "address",
							"name": "policyholder",
							"type": "address"
						}
					],
					"name": "PolicyActivated",
					"type": "event"
				},
				{
					"anonymous": false,
					"inputs": [
						{
							"indexed": true,
							"internalType": "address",
							"name": "policyholder",
							"type": "address"
						},
						{
							"indexed": false,
							"internalType": "uint256",
							"name": "premium",
							"type": "uint256"
						},
						{
							"indexed": false,
							"internalType": "uint256",
							"name": "coverage",
							"type": "uint256"
						},
						{
							"indexed": false,
							"internalType": "uint256",
							"name": "expirationDate",
							"type": "uint256"
						}
					],
					"name": "PolicyCreated",
					"type": "event"
				},
				{
					"anonymous": false,
					"inputs": [
						{
							"indexed": true,
							"internalType": "address",
							"name": "policyholder",
							"type": "address"
						}
					],
					"name": "PolicyDeactivated",
					"type": "event"
				},
				{
					"inputs": [],
					"name": "activatePolicy",
					"outputs": [],
					"stateMutability": "nonpayable",
					"type": "function"
				},
				{
					"inputs": [
						{
							"internalType": "uint256",
							"name": "_premium",
							"type": "uint256"
						},
						{
							"internalType": "uint256",
							"name": "_coverage",
							"type": "uint256"
						},
						{
							"internalType": "uint256",
							"name": "_duration",
							"type": "uint256"
						}
					],
					"name": "createPolicy",
					"outputs": [],
					"stateMutability": "nonpayable",
					"type": "function"
				},
				{
					"inputs": [],
					"name": "deactivatePolicy",
					"outputs": [],
					"stateMutability": "nonpayable",
					"type": "function"
				},
				{
					"inputs": [
						{
							"internalType": "address",
							"name": "_policyholder",
							"type": "address"
						}
					],
					"name": "getPolicyDetails",
					"outputs": [
						{
							"components": [
								{
									"internalType": "address",
									"name": "policyholder",
									"type": "address"
								},
								{
									"internalType": "uint256",
									"name": "premium",
									"type": "uint256"
								},
								{
									"internalType": "uint256",
									"name": "coverage",
									"type": "uint256"
								},
								{
									"internalType": "uint256",
									"name": "expirationDate",
									"type": "uint256"
								},
								{
									"internalType": "bool",
									"name": "active",
									"type": "bool"
								}
							],
							"internalType": "struct InsurancePolicy.Policy",
							"name": "",
							"type": "tuple"
						}
					],
					"stateMutability": "view",
					"type": "function"
				},
				{
					"inputs": [
						{
							"internalType": "address",
							"name": "",
							"type": "address"
						}
					],
					"name": "policies",
					"outputs": [
						{
							"internalType": "address",
							"name": "policyholder",
							"type": "address"
						},
						{
							"internalType": "uint256",
							"name": "premium",
							"type": "uint256"
						},
						{
							"internalType": "uint256",
							"name": "coverage",
							"type": "uint256"
						},
						{
							"internalType": "uint256",
							"name": "expirationDate",
							"type": "uint256"
						},
						{
							"internalType": "bool",
							"name": "active",
							"type": "bool"
						}
					],
					"stateMutability": "view",
					"type": "function"
				}
			],
			"devdoc": {
				"kind": "dev",
				"methods": {},
				"version": 1
			},
			"evm": {
				"assembly": "    /* \"contracts/InsurancePolicy.sol\":64:1993  contract InsurancePolicy {... */\n  mstore(0x40, 0x80)\n  callvalue\n  dup1\n  iszero\n  tag_1\n  jumpi\n  0x00\n  dup1\n  revert\ntag_1:\n  pop\n  dataSize(sub_0)\n  dup1\n  dataOffset(sub_0)\n  0x00\n  codecopy\n  0x00\n  return\nstop\n\nsub_0: assembly {\n        /* \"contracts/InsurancePolicy.sol\":64:1993  contract InsurancePolicy {... */\n      mstore(0x40, 0x80)\n      callvalue\n      dup1\n      iszero\n      tag_1\n      jumpi\n      0x00\n      dup1\n      revert\n    tag_1:\n      pop\n      jumpi(tag_2, lt(calldatasize, 0x04))\n      shr(0xe0, calldataload(0x00))\n      dup1\n      0x20e98698\n      eq\n      tag_3\n      jumpi\n      dup1\n      0x45f23e29\n      eq\n      tag_4\n      jumpi\n      dup1\n      0x660d403f\n      eq\n      tag_5\n      jumpi\n      dup1\n      0x8634f7a8\n      eq\n      tag_6\n      jumpi\n      dup1\n      0xd0ab9a89\n      eq\n      tag_7\n      jumpi\n    tag_2:\n      0x00\n      dup1\n      revert\n        /* \"contracts/InsurancePolicy.sol\":256:298  mapping(address => Policy) public policies */\n    tag_3:\n      tag_8\n      0x04\n      dup1\n      calldatasize\n      sub\n      dup2\n      add\n      swap1\n      tag_9\n      swap2\n      swap1\n      tag_10\n      jump\t// in\n    tag_9:\n      tag_11\n      jump\t// in\n    tag_8:\n      mload(0x40)\n      tag_12\n      swap6\n      swap5\n      swap4\n      swap3\n      swap2\n      swap1\n      tag_13\n      jump\t// in\n    tag_12:\n      mload(0x40)\n      dup1\n      swap2\n      sub\n      swap1\n      return\n        /* \"contracts/InsurancePolicy.sol\":1857:1991  function getPolicyDetails(address _policyholder) external view returns (Policy memory) {... */\n    tag_4:\n      tag_14\n      0x04\n      dup1\n      calldatasize\n      sub\n      dup2\n      add\n      swap1\n      tag_15\n      swap2\n      swap1\n      tag_10\n      jump\t// in\n    tag_15:\n      tag_16\n      jump\t// in\n    tag_14:\n      mload(0x40)\n      tag_17\n      swap2\n      swap1\n      tag_18\n      jump\t// in\n    tag_17:\n      mload(0x40)\n      dup1\n      swap2\n      sub\n      swap1\n      return\n        /* \"contracts/InsurancePolicy.sol\":1274:1598  function activatePolicy() external onlyPolicyholder {... */\n    tag_5:\n      tag_19\n      tag_20\n      jump\t// in\n    tag_19:\n      stop\n        /* \"contracts/InsurancePolicy.sol\":1604:1851  function deactivatePolicy() external onlyPolicyholder {... */\n    tag_6:\n      tag_21\n      tag_22\n      jump\t// in\n    tag_21:\n      stop\n        /* \"contracts/InsurancePolicy.sol\":678:1268  function createPolicy(uint256 _premium, uint256 _coverage, uint256 _duration) external {... */\n    tag_7:\n      tag_23\n      0x04\n      dup1\n      calldatasize\n      sub\n      dup2\n      add\n      swap1\n      tag_24\n      swap2\n      swap1\n      tag_25\n      jump\t// in\n    tag_24:\n      tag_26\n      jump\t// in\n    tag_23:\n      stop\n        /* \"contracts/InsurancePolicy.sol\":256:298  mapping(address => Policy) public policies */\n    tag_11:\n      mstore(0x20, 0x00)\n      dup1\n      0x00\n      mstore\n      keccak256(0x00, 0x40)\n      0x00\n      swap2\n      pop\n      swap1\n      pop\n      dup1\n      0x00\n      add\n      0x00\n      swap1\n      sload\n      swap1\n      0x0100\n      exp\n      swap1\n      div\n      0xffffffffffffffffffffffffffffffffffffffff\n      and\n      swap1\n      dup1\n      0x01\n      add\n      sload\n      swap1\n      dup1\n      0x02\n      add\n      sload\n      swap1\n      dup1\n      0x03\n      add\n      sload\n      swap1\n      dup1\n      0x04\n      add\n      0x00\n      swap1\n      sload\n      swap1\n      0x0100\n      exp\n      swap1\n      div\n      0xff\n      and\n      swap1\n      pop\n      dup6\n      jump\t// out\n        /* \"contracts/InsurancePolicy.sol\":1857:1991  function getPolicyDetails(address _policyholder) external view returns (Policy memory) {... */\n    tag_16:\n        /* \"contracts/InsurancePolicy.sol\":1929:1942  Policy memory */\n      tag_27\n      tag_28\n      jump\t// in\n    tag_27:\n        /* \"contracts/InsurancePolicy.sol\":1961:1969  policies */\n      0x00\n        /* \"contracts/InsurancePolicy.sol\":1961:1984  policies[_policyholder] */\n      dup1\n        /* \"contracts/InsurancePolicy.sol\":1970:1983  _policyholder */\n      dup4\n        /* \"contracts/InsurancePolicy.sol\":1961:1984  policies[_policyholder] */\n      0xffffffffffffffffffffffffffffffffffffffff\n      and\n      0xffffffffffffffffffffffffffffffffffffffff\n      and\n      dup2\n      mstore\n      0x20\n      add\n      swap1\n      dup2\n      mstore\n      0x20\n      add\n      0x00\n      keccak256\n        /* \"contracts/InsurancePolicy.sol\":1954:1984  return policies[_policyholder] */\n      mload(0x40)\n      dup1\n      0xa0\n      add\n      0x40\n      mstore\n      swap1\n      dup2\n      0x00\n      dup3\n      add\n      0x00\n      swap1\n      sload\n      swap1\n      0x0100\n      exp\n      swap1\n      div\n      0xffffffffffffffffffffffffffffffffffffffff\n      and\n      0xffffffffffffffffffffffffffffffffffffffff\n      and\n      0xffffffffffffffffffffffffffffffffffffffff\n      and\n      dup2\n      mstore\n      0x20\n      add\n      0x01\n      dup3\n      add\n      sload\n      dup2\n      mstore\n      0x20\n      add\n      0x02\n      dup3\n      add\n      sload\n      dup2\n      mstore\n      0x20\n      add\n      0x03\n      dup3\n      add\n      sload\n      dup2\n      mstore\n      0x20\n      add\n      0x04\n      dup3\n      add\n      0x00\n      swap1\n      sload\n      swap1\n      0x0100\n      exp\n      swap1\n      div\n      0xff\n      and\n      iszero\n      iszero\n      iszero\n      iszero\n      dup2\n      mstore\n      pop\n      pop\n      swap1\n      pop\n        /* \"contracts/InsurancePolicy.sol\":1857:1991  function getPolicyDetails(address _policyholder) external view returns (Policy memory) {... */\n      swap2\n      swap1\n      pop\n      jump\t// out\n        /* \"contracts/InsurancePolicy.sol\":1274:1598  function activatePolicy() external onlyPolicyholder {... */\n    tag_20:\n        /* \"contracts/InsurancePolicy.sol\":619:629  msg.sender */\n      caller\n        /* \"contracts/InsurancePolicy.sol\":582:629  policies[msg.sender].policyholder == msg.sender */\n      0xffffffffffffffffffffffffffffffffffffffff\n      and\n        /* \"contracts/InsurancePolicy.sol\":582:590  policies */\n      0x00\n        /* \"contracts/InsurancePolicy.sol\":582:602  policies[msg.sender] */\n      dup1\n        /* \"contracts/InsurancePolicy.sol\":591:601  msg.sender */\n      caller\n        /* \"contracts/InsurancePolicy.sol\":582:602  policies[msg.sender] */\n      0xffffffffffffffffffffffffffffffffffffffff\n      and\n      0xffffffffffffffffffffffffffffffffffffffff\n      and\n      dup2\n      mstore\n      0x20\n      add\n      swap1\n      dup2\n      mstore\n      0x20\n      add\n      0x00\n      keccak256\n        /* \"contracts/InsurancePolicy.sol\":582:615  policies[msg.sender].policyholder */\n      0x00\n      add\n      0x00\n      swap1\n      sload\n      swap1\n      0x0100\n      exp\n      swap1\n      div\n      0xffffffffffffffffffffffffffffffffffffffff\n      and\n        /* \"contracts/InsurancePolicy.sol\":582:629  policies[msg.sender].policyholder == msg.sender */\n      0xffffffffffffffffffffffffffffffffffffffff\n      and\n      eq\n        /* \"contracts/InsurancePolicy.sol\":574:654  require(policies[msg.sender].policyholder == msg.sender, \"Not the policyholder\") */\n      tag_31\n      jumpi\n      mload(0x40)\n      0x08c379a000000000000000000000000000000000000000000000000000000000\n      dup2\n      mstore\n      0x04\n      add\n      tag_32\n      swap1\n      tag_33\n      jump\t// in\n    tag_32:\n      mload(0x40)\n      dup1\n      swap2\n      sub\n      swap1\n      revert\n    tag_31:\n        /* \"contracts/InsurancePolicy.sol\":1336:1357  Policy storage policy */\n      0x00\n        /* \"contracts/InsurancePolicy.sol\":1360:1368  policies */\n      dup1\n        /* \"contracts/InsurancePolicy.sol\":1360:1380  policies[msg.sender] */\n      0x00\n        /* \"contracts/InsurancePolicy.sol\":1369:1379  msg.sender */\n      caller\n        /* \"contracts/InsurancePolicy.sol\":1360:1380  policies[msg.sender] */\n      0xffffffffffffffffffffffffffffffffffffffff\n      and\n      0xffffffffffffffffffffffffffffffffffffffff\n      and\n      dup2\n      mstore\n      0x20\n      add\n      swap1\n      dup2\n      mstore\n      0x20\n      add\n      0x00\n      keccak256\n        /* \"contracts/InsurancePolicy.sol\":1336:1380  Policy storage policy = policies[msg.sender] */\n      swap1\n      pop\n        /* \"contracts/InsurancePolicy.sol\":1399:1405  policy */\n      dup1\n        /* \"contracts/InsurancePolicy.sol\":1399:1412  policy.active */\n      0x04\n      add\n      0x00\n      swap1\n      sload\n      swap1\n      0x0100\n      exp\n      swap1\n      div\n      0xff\n      and\n        /* \"contracts/InsurancePolicy.sol\":1398:1412  !policy.active */\n      iszero\n        /* \"contracts/InsurancePolicy.sol\":1390:1441  require(!policy.active, \"Policy is already active\") */\n      tag_35\n      jumpi\n      mload(0x40)\n      0x08c379a000000000000000000000000000000000000000000000000000000000\n      dup2\n      mstore\n      0x04\n      add\n      tag_36\n      swap1\n      tag_37\n      jump\t// in\n    tag_36:\n      mload(0x40)\n      dup1\n      swap2\n      sub\n      swap1\n      revert\n    tag_35:\n        /* \"contracts/InsurancePolicy.sol\":1478:1484  policy */\n      dup1\n        /* \"contracts/InsurancePolicy.sol\":1478:1499  policy.expirationDate */\n      0x03\n      add\n      sload\n        /* \"contracts/InsurancePolicy.sol\":1459:1474  block.timestamp */\n      timestamp\n        /* \"contracts/InsurancePolicy.sol\":1459:1499  block.timestamp <= policy.expirationDate */\n      gt\n      iszero\n        /* \"contracts/InsurancePolicy.sol\":1451:1518  require(block.timestamp <= policy.expirationDate, \"Policy expired\") */\n      tag_38\n      jumpi\n      mload(0x40)\n      0x08c379a000000000000000000000000000000000000000000000000000000000\n      dup2\n      mstore\n      0x04\n      add\n      tag_39\n      swap1\n      tag_40\n      jump\t// in\n    tag_39:\n      mload(0x40)\n      dup1\n      swap2\n      sub\n      swap1\n      revert\n    tag_38:\n        /* \"contracts/InsurancePolicy.sol\":1545:1549  true */\n      0x01\n        /* \"contracts/InsurancePolicy.sol\":1529:1535  policy */\n      dup2\n        /* \"contracts/InsurancePolicy.sol\":1529:1542  policy.active */\n      0x04\n      add\n      0x00\n        /* \"contracts/InsurancePolicy.sol\":1529:1549  policy.active = true */\n      0x0100\n      exp\n      dup2\n      sload\n      dup2\n      0xff\n      mul\n      not\n      and\n      swap1\n      dup4\n      iszero\n      iszero\n      mul\n      or\n      swap1\n      sstore\n      pop\n        /* \"contracts/InsurancePolicy.sol\":1580:1590  msg.sender */\n      caller\n        /* \"contracts/InsurancePolicy.sol\":1564:1591  PolicyActivated(msg.sender) */\n      0xffffffffffffffffffffffffffffffffffffffff\n      and\n      0xa5614451a3c2c9884f17850964e40081c39ad6b63a0c92ef5e3eee6c5c25ae5a\n      mload(0x40)\n      mload(0x40)\n      dup1\n      swap2\n      sub\n      swap1\n      log2\n        /* \"contracts/InsurancePolicy.sol\":1326:1598  {... */\n      pop\n        /* \"contracts/InsurancePolicy.sol\":1274:1598  function activatePolicy() external onlyPolicyholder {... */\n      jump\t// out\n        /* \"contracts/InsurancePolicy.sol\":1604:1851  function deactivatePolicy() external onlyPolicyholder {... */\n    tag_22:\n        /* \"contracts/InsurancePolicy.sol\":619:629  msg.sender */\n      caller\n        /* \"contracts/InsurancePolicy.sol\":582:629  policies[msg.sender].policyholder == msg.sender */\n      0xffffffffffffffffffffffffffffffffffffffff\n      and\n        /* \"contracts/InsurancePolicy.sol\":582:590  policies */\n      0x00\n        /* \"contracts/InsurancePolicy.sol\":582:602  policies[msg.sender] */\n      dup1\n        /* \"contracts/InsurancePolicy.sol\":591:601  msg.sender */\n      caller\n        /* \"contracts/InsurancePolicy.sol\":582:602  policies[msg.sender] */\n      0xffffffffffffffffffffffffffffffffffffffff\n      and\n      0xffffffffffffffffffffffffffffffffffffffff\n      and\n      dup2\n      mstore\n      0x20\n      add\n      swap1\n      dup2\n      mstore\n      0x20\n      add\n      0x00\n      keccak256\n        /* \"contracts/InsurancePolicy.sol\":582:615  policies[msg.sender].policyholder */\n      0x00\n      add\n      0x00\n      swap1\n      sload\n      swap1\n      0x0100\n      exp\n      swap1\n      div\n      0xffffffffffffffffffffffffffffffffffffffff\n      and\n        /* \"contracts/InsurancePolicy.sol\":582:629  policies[msg.sender].policyholder == msg.sender */\n      0xffffffffffffffffffffffffffffffffffffffff\n      and\n      eq\n        /* \"contracts/InsurancePolicy.sol\":574:654  require(policies[msg.sender].policyholder == msg.sender, \"Not the policyholder\") */\n      tag_42\n      jumpi\n      mload(0x40)\n      0x08c379a000000000000000000000000000000000000000000000000000000000\n      dup2\n      mstore\n      0x04\n      add\n      tag_43\n      swap1\n      tag_33\n      jump\t// in\n    tag_43:\n      mload(0x40)\n      dup1\n      swap2\n      sub\n      swap1\n      revert\n    tag_42:\n        /* \"contracts/InsurancePolicy.sol\":1668:1689  Policy storage policy */\n      0x00\n        /* \"contracts/InsurancePolicy.sol\":1692:1700  policies */\n      dup1\n        /* \"contracts/InsurancePolicy.sol\":1692:1712  policies[msg.sender] */\n      0x00\n        /* \"contracts/InsurancePolicy.sol\":1701:1711  msg.sender */\n      caller\n        /* \"contracts/InsurancePolicy.sol\":1692:1712  policies[msg.sender] */\n      0xffffffffffffffffffffffffffffffffffffffff\n      and\n      0xffffffffffffffffffffffffffffffffffffffff\n      and\n      dup2\n      mstore\n      0x20\n      add\n      swap1\n      dup2\n      mstore\n      0x20\n      add\n      0x00\n      keccak256\n        /* \"contracts/InsurancePolicy.sol\":1668:1712  Policy storage policy = policies[msg.sender] */\n      swap1\n      pop\n        /* \"contracts/InsurancePolicy.sol\":1730:1736  policy */\n      dup1\n        /* \"contracts/InsurancePolicy.sol\":1730:1743  policy.active */\n      0x04\n      add\n      0x00\n      swap1\n      sload\n      swap1\n      0x0100\n      exp\n      swap1\n      div\n      0xff\n      and\n        /* \"contracts/InsurancePolicy.sol\":1722:1768  require(policy.active, \"Policy is not active\") */\n      tag_45\n      jumpi\n      mload(0x40)\n      0x08c379a000000000000000000000000000000000000000000000000000000000\n      dup2\n      mstore\n      0x04\n      add\n      tag_46\n      swap1\n      tag_47\n      jump\t// in\n    tag_46:\n      mload(0x40)\n      dup1\n      swap2\n      sub\n      swap1\n      revert\n    tag_45:\n        /* \"contracts/InsurancePolicy.sol\":1795:1800  false */\n      0x00\n        /* \"contracts/InsurancePolicy.sol\":1779:1785  policy */\n      dup2\n        /* \"contracts/InsurancePolicy.sol\":1779:1792  policy.active */\n      0x04\n      add\n      0x00\n        /* \"contracts/InsurancePolicy.sol\":1779:1800  policy.active = false */\n      0x0100\n      exp\n      dup2\n      sload\n      dup2\n      0xff\n      mul\n      not\n      and\n      swap1\n      dup4\n      iszero\n      iszero\n      mul\n      or\n      swap1\n      sstore\n      pop\n        /* \"contracts/InsurancePolicy.sol\":1833:1843  msg.sender */\n      caller\n        /* \"contracts/InsurancePolicy.sol\":1815:1844  PolicyDeactivated(msg.sender) */\n      0xffffffffffffffffffffffffffffffffffffffff\n      and\n      0xd865e7aacd70c01e98fc3483cabb8e68517a9c90ea19f073836f73eb53153c79\n      mload(0x40)\n      mload(0x40)\n      dup1\n      swap2\n      sub\n      swap1\n      log2\n        /* \"contracts/InsurancePolicy.sol\":1658:1851  {... */\n      pop\n        /* \"contracts/InsurancePolicy.sol\":1604:1851  function deactivatePolicy() external onlyPolicyholder {... */\n      jump\t// out\n        /* \"contracts/InsurancePolicy.sol\":678:1268  function createPolicy(uint256 _premium, uint256 _coverage, uint256 _duration) external {... */\n    tag_26:\n        /* \"contracts/InsurancePolicy.sol\":828:829  0 */\n      0x00\n        /* \"contracts/InsurancePolicy.sol\":783:830  policies[msg.sender].policyholder == address(0) */\n      0xffffffffffffffffffffffffffffffffffffffff\n      and\n        /* \"contracts/InsurancePolicy.sol\":783:791  policies */\n      0x00\n        /* \"contracts/InsurancePolicy.sol\":783:803  policies[msg.sender] */\n      dup1\n        /* \"contracts/InsurancePolicy.sol\":792:802  msg.sender */\n      caller\n        /* \"contracts/InsurancePolicy.sol\":783:803  policies[msg.sender] */\n      0xffffffffffffffffffffffffffffffffffffffff\n      and\n      0xffffffffffffffffffffffffffffffffffffffff\n      and\n      dup2\n      mstore\n      0x20\n      add\n      swap1\n      dup2\n      mstore\n      0x20\n      add\n      0x00\n      keccak256\n        /* \"contracts/InsurancePolicy.sol\":783:816  policies[msg.sender].policyholder */\n      0x00\n      add\n      0x00\n      swap1\n      sload\n      swap1\n      0x0100\n      exp\n      swap1\n      div\n      0xffffffffffffffffffffffffffffffffffffffff\n      and\n        /* \"contracts/InsurancePolicy.sol\":783:830  policies[msg.sender].policyholder == address(0) */\n      0xffffffffffffffffffffffffffffffffffffffff\n      and\n      eq\n        /* \"contracts/InsurancePolicy.sol\":775:878  require(policies[msg.sender].policyholder == address(0), \"Policy already exists for this policyholder\") */\n      tag_49\n      jumpi\n      mload(0x40)\n      0x08c379a000000000000000000000000000000000000000000000000000000000\n      dup2\n      mstore\n      0x04\n      add\n      tag_50\n      swap1\n      tag_51\n      jump\t// in\n    tag_50:\n      mload(0x40)\n      dup1\n      swap2\n      sub\n      swap1\n      revert\n    tag_49:\n        /* \"contracts/InsurancePolicy.sol\":889:912  Policy memory newPolicy */\n      0x00\n        /* \"contracts/InsurancePolicy.sol\":915:1119  Policy({... */\n      mload(0x40)\n      dup1\n      0xa0\n      add\n      0x40\n      mstore\n      dup1\n        /* \"contracts/InsurancePolicy.sol\":950:960  msg.sender */\n      caller\n        /* \"contracts/InsurancePolicy.sol\":915:1119  Policy({... */\n      0xffffffffffffffffffffffffffffffffffffffff\n      and\n      dup2\n      mstore\n      0x20\n      add\n        /* \"contracts/InsurancePolicy.sol\":983:991  _premium */\n      dup6\n        /* \"contracts/InsurancePolicy.sol\":915:1119  Policy({... */\n      dup2\n      mstore\n      0x20\n      add\n        /* \"contracts/InsurancePolicy.sol\":1015:1024  _coverage */\n      dup5\n        /* \"contracts/InsurancePolicy.sol\":915:1119  Policy({... */\n      dup2\n      mstore\n      0x20\n      add\n        /* \"contracts/InsurancePolicy.sol\":1072:1081  _duration */\n      dup4\n        /* \"contracts/InsurancePolicy.sol\":1054:1069  block.timestamp */\n      timestamp\n        /* \"contracts/InsurancePolicy.sol\":1054:1081  block.timestamp + _duration */\n      tag_52\n      swap2\n      swap1\n      tag_53\n      jump\t// in\n    tag_52:\n        /* \"contracts/InsurancePolicy.sol\":915:1119  Policy({... */\n      dup2\n      mstore\n      0x20\n      add\n        /* \"contracts/InsurancePolicy.sol\":1103:1108  false */\n      0x00\n        /* \"contracts/InsurancePolicy.sol\":915:1119  Policy({... */\n      iszero\n      iszero\n      dup2\n      mstore\n      pop\n        /* \"contracts/InsurancePolicy.sol\":889:1119  Policy memory newPolicy = Policy({... */\n      swap1\n      pop\n        /* \"contracts/InsurancePolicy.sol\":1153:1162  newPolicy */\n      dup1\n        /* \"contracts/InsurancePolicy.sol\":1130:1138  policies */\n      0x00\n        /* \"contracts/InsurancePolicy.sol\":1130:1150  policies[msg.sender] */\n      dup1\n        /* \"contracts/InsurancePolicy.sol\":1139:1149  msg.sender */\n      caller\n        /* \"contracts/InsurancePolicy.sol\":1130:1150  policies[msg.sender] */\n      0xffffffffffffffffffffffffffffffffffffffff\n      and\n      0xffffffffffffffffffffffffffffffffffffffff\n      and\n      dup2\n      mstore\n      0x20\n      add\n      swap1\n      dup2\n      mstore\n      0x20\n      add\n      0x00\n      keccak256\n        /* \"contracts/InsurancePolicy.sol\":1130:1162  policies[msg.sender] = newPolicy */\n      0x00\n      dup3\n      add\n      mload\n      dup2\n      0x00\n      add\n      exp(0x0100, 0x00)\n      dup2\n      sload\n      dup2\n      0xffffffffffffffffffffffffffffffffffffffff\n      mul\n      not\n      and\n      swap1\n      dup4\n      0xffffffffffffffffffffffffffffffffffffffff\n      and\n      mul\n      or\n      swap1\n      sstore\n      pop\n      0x20\n      dup3\n      add\n      mload\n      dup2\n      0x01\n      add\n      sstore\n      0x40\n      dup3\n      add\n      mload\n      dup2\n      0x02\n      add\n      sstore\n      0x60\n      dup3\n      add\n      mload\n      dup2\n      0x03\n      add\n      sstore\n      0x80\n      dup3\n      add\n      mload\n      dup2\n      0x04\n      add\n      exp(0x0100, 0x00)\n      dup2\n      sload\n      dup2\n      0xff\n      mul\n      not\n      and\n      swap1\n      dup4\n      iszero\n      iszero\n      mul\n      or\n      swap1\n      sstore\n      pop\n      swap1\n      pop\n      pop\n        /* \"contracts/InsurancePolicy.sol\":1200:1210  msg.sender */\n      caller\n        /* \"contracts/InsurancePolicy.sol\":1186:1261  PolicyCreated(msg.sender, _premium, _coverage, block.timestamp + _duration) */\n      0xffffffffffffffffffffffffffffffffffffffff\n      and\n      0x7d02b09c49332ca74071d4d7d88d4220ec928f86ec5d8773c6faeae4ca86c5b0\n        /* \"contracts/InsurancePolicy.sol\":1212:1220  _premium */\n      dup6\n        /* \"contracts/InsurancePolicy.sol\":1222:1231  _coverage */\n      dup6\n        /* \"contracts/InsurancePolicy.sol\":1251:1260  _duration */\n      dup6\n        /* \"contracts/InsurancePolicy.sol\":1233:1248  block.timestamp */\n      timestamp\n        /* \"contracts/InsurancePolicy.sol\":1233:1260  block.timestamp + _duration */\n      tag_54\n      swap2\n      swap1\n      tag_53\n      jump\t// in\n    tag_54:\n        /* \"contracts/InsurancePolicy.sol\":1186:1261  PolicyCreated(msg.sender, _premium, _coverage, block.timestamp + _duration) */\n      mload(0x40)\n      tag_55\n      swap4\n      swap3\n      swap2\n      swap1\n      tag_56\n      jump\t// in\n    tag_55:\n      mload(0x40)\n      dup1\n      swap2\n      sub\n      swap1\n      log2\n        /* \"contracts/InsurancePolicy.sol\":765:1268  {... */\n      pop\n        /* \"contracts/InsurancePolicy.sol\":678:1268  function createPolicy(uint256 _premium, uint256 _coverage, uint256 _duration) external {... */\n      pop\n      pop\n      pop\n      jump\t// out\n    tag_28:\n      mload(0x40)\n      dup1\n      0xa0\n      add\n      0x40\n      mstore\n      dup1\n      and(0xffffffffffffffffffffffffffffffffffffffff, 0x00)\n      dup2\n      mstore\n      0x20\n      add\n      0x00\n      dup2\n      mstore\n      0x20\n      add\n      0x00\n      dup2\n      mstore\n      0x20\n      add\n      0x00\n      dup2\n      mstore\n      0x20\n      add\n      iszero(iszero(0x00))\n      dup2\n      mstore\n      pop\n      swap1\n      jump\t// out\n        /* \"#utility.yul\":88:205   */\n    tag_58:\n        /* \"#utility.yul\":197:198   */\n      0x00\n        /* \"#utility.yul\":194:195   */\n      dup1\n        /* \"#utility.yul\":187:199   */\n      revert\n        /* \"#utility.yul\":334:460   */\n    tag_60:\n        /* \"#utility.yul\":371:378   */\n      0x00\n        /* \"#utility.yul\":411:453   */\n      0xffffffffffffffffffffffffffffffffffffffff\n        /* \"#utility.yul\":404:409   */\n      dup3\n        /* \"#utility.yul\":400:454   */\n      and\n        /* \"#utility.yul\":389:454   */\n      swap1\n      pop\n        /* \"#utility.yul\":334:460   */\n      swap2\n      swap1\n      pop\n      jump\t// out\n        /* \"#utility.yul\":466:562   */\n    tag_61:\n        /* \"#utility.yul\":503:510   */\n      0x00\n        /* \"#utility.yul\":532:556   */\n      tag_93\n        /* \"#utility.yul\":550:555   */\n      dup3\n        /* \"#utility.yul\":532:556   */\n      tag_60\n      jump\t// in\n    tag_93:\n        /* \"#utility.yul\":521:556   */\n      swap1\n      pop\n        /* \"#utility.yul\":466:562   */\n      swap2\n      swap1\n      pop\n      jump\t// out\n        /* \"#utility.yul\":568:690   */\n    tag_62:\n        /* \"#utility.yul\":641:665   */\n      tag_95\n        /* \"#utility.yul\":659:664   */\n      dup2\n        /* \"#utility.yul\":641:665   */\n      tag_61\n      jump\t// in\n    tag_95:\n        /* \"#utility.yul\":634:639   */\n      dup2\n        /* \"#utility.yul\":631:666   */\n      eq\n        /* \"#utility.yul\":621:684   */\n      tag_96\n      jumpi\n        /* \"#utility.yul\":680:681   */\n      0x00\n        /* \"#utility.yul\":677:678   */\n      dup1\n        /* \"#utility.yul\":670:682   */\n      revert\n        /* \"#utility.yul\":621:684   */\n    tag_96:\n        /* \"#utility.yul\":568:690   */\n      pop\n      jump\t// out\n        /* \"#utility.yul\":696:835   */\n    tag_63:\n        /* \"#utility.yul\":742:747   */\n      0x00\n        /* \"#utility.yul\":780:786   */\n      dup2\n        /* \"#utility.yul\":767:787   */\n      calldataload\n        /* \"#utility.yul\":758:787   */\n      swap1\n      pop\n        /* \"#utility.yul\":796:829   */\n      tag_98\n        /* \"#utility.yul\":823:828   */\n      dup2\n        /* \"#utility.yul\":796:829   */\n      tag_62\n      jump\t// in\n    tag_98:\n        /* \"#utility.yul\":696:835   */\n      swap3\n      swap2\n      pop\n      pop\n      jump\t// out\n        /* \"#utility.yul\":841:1170   */\n    tag_10:\n        /* \"#utility.yul\":900:906   */\n      0x00\n        /* \"#utility.yul\":949:951   */\n      0x20\n        /* \"#utility.yul\":937:946   */\n      dup3\n        /* \"#utility.yul\":928:935   */\n      dup5\n        /* \"#utility.yul\":924:947   */\n      sub\n        /* \"#utility.yul\":920:952   */\n      slt\n        /* \"#utility.yul\":917:1036   */\n      iszero\n      tag_100\n      jumpi\n        /* \"#utility.yul\":955:1034   */\n      tag_101\n      tag_58\n      jump\t// in\n    tag_101:\n        /* \"#utility.yul\":917:1036   */\n    tag_100:\n        /* \"#utility.yul\":1075:1076   */\n      0x00\n        /* \"#utility.yul\":1100:1153   */\n      tag_102\n        /* \"#utility.yul\":1145:1152   */\n      dup5\n        /* \"#utility.yul\":1136:1142   */\n      dup3\n        /* \"#utility.yul\":1125:1134   */\n      dup6\n        /* \"#utility.yul\":1121:1143   */\n      add\n        /* \"#utility.yul\":1100:1153   */\n      tag_63\n      jump\t// in\n    tag_102:\n        /* \"#utility.yul\":1090:1153   */\n      swap2\n      pop\n        /* \"#utility.yul\":1046:1163   */\n      pop\n        /* \"#utility.yul\":841:1170   */\n      swap3\n      swap2\n      pop\n      pop\n      jump\t// out\n        /* \"#utility.yul\":1176:1294   */\n    tag_64:\n        /* \"#utility.yul\":1263:1287   */\n      tag_104\n        /* \"#utility.yul\":1281:1286   */\n      dup2\n        /* \"#utility.yul\":1263:1287   */\n      tag_61\n      jump\t// in\n    tag_104:\n        /* \"#utility.yul\":1258:1261   */\n      dup3\n        /* \"#utility.yul\":1251:1288   */\n      mstore\n        /* \"#utility.yul\":1176:1294   */\n      pop\n      pop\n      jump\t// out\n        /* \"#utility.yul\":1300:1377   */\n    tag_65:\n        /* \"#utility.yul\":1337:1344   */\n      0x00\n        /* \"#utility.yul\":1366:1371   */\n      dup2\n        /* \"#utility.yul\":1355:1371   */\n      swap1\n      pop\n        /* \"#utility.yul\":1300:1377   */\n      swap2\n      swap1\n      pop\n      jump\t// out\n        /* \"#utility.yul\":1383:1501   */\n    tag_66:\n        /* \"#utility.yul\":1470:1494   */\n      tag_107\n        /* \"#utility.yul\":1488:1493   */\n      dup2\n        /* \"#utility.yul\":1470:1494   */\n      tag_65\n      jump\t// in\n    tag_107:\n        /* \"#utility.yul\":1465:1468   */\n      dup3\n        /* \"#utility.yul\":1458:1495   */\n      mstore\n        /* \"#utility.yul\":1383:1501   */\n      pop\n      pop\n      jump\t// out\n        /* \"#utility.yul\":1507:1597   */\n    tag_67:\n        /* \"#utility.yul\":1541:1548   */\n      0x00\n        /* \"#utility.yul\":1584:1589   */\n      dup2\n        /* \"#utility.yul\":1577:1590   */\n      iszero\n        /* \"#utility.yul\":1570:1591   */\n      iszero\n        /* \"#utility.yul\":1559:1591   */\n      swap1\n      pop\n        /* \"#utility.yul\":1507:1597   */\n      swap2\n      swap1\n      pop\n      jump\t// out\n        /* \"#utility.yul\":1603:1712   */\n    tag_68:\n        /* \"#utility.yul\":1684:1705   */\n      tag_110\n        /* \"#utility.yul\":1699:1704   */\n      dup2\n        /* \"#utility.yul\":1684:1705   */\n      tag_67\n      jump\t// in\n    tag_110:\n        /* \"#utility.yul\":1679:1682   */\n      dup3\n        /* \"#utility.yul\":1672:1706   */\n      mstore\n        /* \"#utility.yul\":1603:1712   */\n      pop\n      pop\n      jump\t// out\n        /* \"#utility.yul\":1718:2370   */\n    tag_13:\n        /* \"#utility.yul\":1917:1921   */\n      0x00\n        /* \"#utility.yul\":1955:1958   */\n      0xa0\n        /* \"#utility.yul\":1944:1953   */\n      dup3\n        /* \"#utility.yul\":1940:1959   */\n      add\n        /* \"#utility.yul\":1932:1959   */\n      swap1\n      pop\n        /* \"#utility.yul\":1969:2040   */\n      tag_112\n        /* \"#utility.yul\":2037:2038   */\n      0x00\n        /* \"#utility.yul\":2026:2035   */\n      dup4\n        /* \"#utility.yul\":2022:2039   */\n      add\n        /* \"#utility.yul\":2013:2019   */\n      dup9\n        /* \"#utility.yul\":1969:2040   */\n      tag_64\n      jump\t// in\n    tag_112:\n        /* \"#utility.yul\":2050:2122   */\n      tag_113\n        /* \"#utility.yul\":2118:2120   */\n      0x20\n        /* \"#utility.yul\":2107:2116   */\n      dup4\n        /* \"#utility.yul\":2103:2121   */\n      add\n        /* \"#utility.yul\":2094:2100   */\n      dup8\n        /* \"#utility.yul\":2050:2122   */\n      tag_66\n      jump\t// in\n    tag_113:\n        /* \"#utility.yul\":2132:2204   */\n      tag_114\n        /* \"#utility.yul\":2200:2202   */\n      0x40\n        /* \"#utility.yul\":2189:2198   */\n      dup4\n        /* \"#utility.yul\":2185:2203   */\n      add\n        /* \"#utility.yul\":2176:2182   */\n      dup7\n        /* \"#utility.yul\":2132:2204   */\n      tag_66\n      jump\t// in\n    tag_114:\n        /* \"#utility.yul\":2214:2286   */\n      tag_115\n        /* \"#utility.yul\":2282:2284   */\n      0x60\n        /* \"#utility.yul\":2271:2280   */\n      dup4\n        /* \"#utility.yul\":2267:2285   */\n      add\n        /* \"#utility.yul\":2258:2264   */\n      dup6\n        /* \"#utility.yul\":2214:2286   */\n      tag_66\n      jump\t// in\n    tag_115:\n        /* \"#utility.yul\":2296:2363   */\n      tag_116\n        /* \"#utility.yul\":2358:2361   */\n      0x80\n        /* \"#utility.yul\":2347:2356   */\n      dup4\n        /* \"#utility.yul\":2343:2362   */\n      add\n        /* \"#utility.yul\":2334:2340   */\n      dup5\n        /* \"#utility.yul\":2296:2363   */\n      tag_68\n      jump\t// in\n    tag_116:\n        /* \"#utility.yul\":1718:2370   */\n      swap7\n      swap6\n      pop\n      pop\n      pop\n      pop\n      pop\n      pop\n      jump\t// out\n        /* \"#utility.yul\":2376:2484   */\n    tag_69:\n        /* \"#utility.yul\":2453:2477   */\n      tag_118\n        /* \"#utility.yul\":2471:2476   */\n      dup2\n        /* \"#utility.yul\":2453:2477   */\n      tag_61\n      jump\t// in\n    tag_118:\n        /* \"#utility.yul\":2448:2451   */\n      dup3\n        /* \"#utility.yul\":2441:2478   */\n      mstore\n        /* \"#utility.yul\":2376:2484   */\n      pop\n      pop\n      jump\t// out\n        /* \"#utility.yul\":2490:2598   */\n    tag_70:\n        /* \"#utility.yul\":2567:2591   */\n      tag_120\n        /* \"#utility.yul\":2585:2590   */\n      dup2\n        /* \"#utility.yul\":2567:2591   */\n      tag_65\n      jump\t// in\n    tag_120:\n        /* \"#utility.yul\":2562:2565   */\n      dup3\n        /* \"#utility.yul\":2555:2592   */\n      mstore\n        /* \"#utility.yul\":2490:2598   */\n      pop\n      pop\n      jump\t// out\n        /* \"#utility.yul\":2604:2703   */\n    tag_71:\n        /* \"#utility.yul\":2675:2696   */\n      tag_122\n        /* \"#utility.yul\":2690:2695   */\n      dup2\n        /* \"#utility.yul\":2675:2696   */\n      tag_67\n      jump\t// in\n    tag_122:\n        /* \"#utility.yul\":2670:2673   */\n      dup3\n        /* \"#utility.yul\":2663:2697   */\n      mstore\n        /* \"#utility.yul\":2604:2703   */\n      pop\n      pop\n      jump\t// out\n        /* \"#utility.yul\":2779:3823   */\n    tag_72:\n        /* \"#utility.yul\":2920:2924   */\n      0xa0\n        /* \"#utility.yul\":2915:2918   */\n      dup3\n        /* \"#utility.yul\":2911:2925   */\n      add\n        /* \"#utility.yul\":3015:3019   */\n      0x00\n        /* \"#utility.yul\":3008:3013   */\n      dup3\n        /* \"#utility.yul\":3004:3020   */\n      add\n        /* \"#utility.yul\":2998:3021   */\n      mload\n        /* \"#utility.yul\":3034:3097   */\n      tag_124\n        /* \"#utility.yul\":3091:3095   */\n      0x00\n        /* \"#utility.yul\":3086:3089   */\n      dup6\n        /* \"#utility.yul\":3082:3096   */\n      add\n        /* \"#utility.yul\":3068:3080   */\n      dup3\n        /* \"#utility.yul\":3034:3097   */\n      tag_69\n      jump\t// in\n    tag_124:\n        /* \"#utility.yul\":2935:3107   */\n      pop\n        /* \"#utility.yul\":3192:3196   */\n      0x20\n        /* \"#utility.yul\":3185:3190   */\n      dup3\n        /* \"#utility.yul\":3181:3197   */\n      add\n        /* \"#utility.yul\":3175:3198   */\n      mload\n        /* \"#utility.yul\":3211:3274   */\n      tag_125\n        /* \"#utility.yul\":3268:3272   */\n      0x20\n        /* \"#utility.yul\":3263:3266   */\n      dup6\n        /* \"#utility.yul\":3259:3273   */\n      add\n        /* \"#utility.yul\":3245:3257   */\n      dup3\n        /* \"#utility.yul\":3211:3274   */\n      tag_70\n      jump\t// in\n    tag_125:\n        /* \"#utility.yul\":3117:3284   */\n      pop\n        /* \"#utility.yul\":3370:3374   */\n      0x40\n        /* \"#utility.yul\":3363:3368   */\n      dup3\n        /* \"#utility.yul\":3359:3375   */\n      add\n        /* \"#utility.yul\":3353:3376   */\n      mload\n        /* \"#utility.yul\":3389:3452   */\n      tag_126\n        /* \"#utility.yul\":3446:3450   */\n      0x40\n        /* \"#utility.yul\":3441:3444   */\n      dup6\n        /* \"#utility.yul\":3437:3451   */\n      add\n        /* \"#utility.yul\":3423:3435   */\n      dup3\n        /* \"#utility.yul\":3389:3452   */\n      tag_70\n      jump\t// in\n    tag_126:\n        /* \"#utility.yul\":3294:3462   */\n      pop\n        /* \"#utility.yul\":3554:3558   */\n      0x60\n        /* \"#utility.yul\":3547:3552   */\n      dup3\n        /* \"#utility.yul\":3543:3559   */\n      add\n        /* \"#utility.yul\":3537:3560   */\n      mload\n        /* \"#utility.yul\":3573:3636   */\n      tag_127\n        /* \"#utility.yul\":3630:3634   */\n      0x60\n        /* \"#utility.yul\":3625:3628   */\n      dup6\n        /* \"#utility.yul\":3621:3635   */\n      add\n        /* \"#utility.yul\":3607:3619   */\n      dup3\n        /* \"#utility.yul\":3573:3636   */\n      tag_70\n      jump\t// in\n    tag_127:\n        /* \"#utility.yul\":3472:3646   */\n      pop\n        /* \"#utility.yul\":3730:3734   */\n      0x80\n        /* \"#utility.yul\":3723:3728   */\n      dup3\n        /* \"#utility.yul\":3719:3735   */\n      add\n        /* \"#utility.yul\":3713:3736   */\n      mload\n        /* \"#utility.yul\":3749:3806   */\n      tag_128\n        /* \"#utility.yul\":3800:3804   */\n      0x80\n        /* \"#utility.yul\":3795:3798   */\n      dup6\n        /* \"#utility.yul\":3791:3805   */\n      add\n        /* \"#utility.yul\":3777:3789   */\n      dup3\n        /* \"#utility.yul\":3749:3806   */\n      tag_71\n      jump\t// in\n    tag_128:\n        /* \"#utility.yul\":3656:3816   */\n      pop\n        /* \"#utility.yul\":2889:3823   */\n      pop\n        /* \"#utility.yul\":2779:3823   */\n      pop\n      pop\n      jump\t// out\n        /* \"#utility.yul\":3829:4140   */\n    tag_18:\n        /* \"#utility.yul\":3966:3970   */\n      0x00\n        /* \"#utility.yul\":4004:4007   */\n      0xa0\n        /* \"#utility.yul\":3993:4002   */\n      dup3\n        /* \"#utility.yul\":3989:4008   */\n      add\n        /* \"#utility.yul\":3981:4008   */\n      swap1\n      pop\n        /* \"#utility.yul\":4018:4133   */\n      tag_130\n        /* \"#utility.yul\":4130:4131   */\n      0x00\n        /* \"#utility.yul\":4119:4128   */\n      dup4\n        /* \"#utility.yul\":4115:4132   */\n      add\n        /* \"#utility.yul\":4106:4112   */\n      dup5\n        /* \"#utility.yul\":4018:4133   */\n      tag_72\n      jump\t// in\n    tag_130:\n        /* \"#utility.yul\":3829:4140   */\n      swap3\n      swap2\n      pop\n      pop\n      jump\t// out\n        /* \"#utility.yul\":4146:4268   */\n    tag_73:\n        /* \"#utility.yul\":4219:4243   */\n      tag_132\n        /* \"#utility.yul\":4237:4242   */\n      dup2\n        /* \"#utility.yul\":4219:4243   */\n      tag_65\n      jump\t// in\n    tag_132:\n        /* \"#utility.yul\":4212:4217   */\n      dup2\n        /* \"#utility.yul\":4209:4244   */\n      eq\n        /* \"#utility.yul\":4199:4262   */\n      tag_133\n      jumpi\n        /* \"#utility.yul\":4258:4259   */\n      0x00\n        /* \"#utility.yul\":4255:4256   */\n      dup1\n        /* \"#utility.yul\":4248:4260   */\n      revert\n        /* \"#utility.yul\":4199:4262   */\n    tag_133:\n        /* \"#utility.yul\":4146:4268   */\n      pop\n      jump\t// out\n        /* \"#utility.yul\":4274:4413   */\n    tag_74:\n        /* \"#utility.yul\":4320:4325   */\n      0x00\n        /* \"#utility.yul\":4358:4364   */\n      dup2\n        /* \"#utility.yul\":4345:4365   */\n      calldataload\n        /* \"#utility.yul\":4336:4365   */\n      swap1\n      pop\n        /* \"#utility.yul\":4374:4407   */\n      tag_135\n        /* \"#utility.yul\":4401:4406   */\n      dup2\n        /* \"#utility.yul\":4374:4407   */\n      tag_73\n      jump\t// in\n    tag_135:\n        /* \"#utility.yul\":4274:4413   */\n      swap3\n      swap2\n      pop\n      pop\n      jump\t// out\n        /* \"#utility.yul\":4419:5038   */\n    tag_25:\n        /* \"#utility.yul\":4496:4502   */\n      0x00\n        /* \"#utility.yul\":4504:4510   */\n      dup1\n        /* \"#utility.yul\":4512:4518   */\n      0x00\n        /* \"#utility.yul\":4561:4563   */\n      0x60\n        /* \"#utility.yul\":4549:4558   */\n      dup5\n        /* \"#utility.yul\":4540:4547   */\n      dup7\n        /* \"#utility.yul\":4536:4559   */\n      sub\n        /* \"#utility.yul\":4532:4564   */\n      slt\n        /* \"#utility.yul\":4529:4648   */\n      iszero\n      tag_137\n      jumpi\n        /* \"#utility.yul\":4567:4646   */\n      tag_138\n      tag_58\n      jump\t// in\n    tag_138:\n        /* \"#utility.yul\":4529:4648   */\n    tag_137:\n        /* \"#utility.yul\":4687:4688   */\n      0x00\n        /* \"#utility.yul\":4712:4765   */\n      tag_139\n        /* \"#utility.yul\":4757:4764   */\n      dup7\n        /* \"#utility.yul\":4748:4754   */\n      dup3\n        /* \"#utility.yul\":4737:4746   */\n      dup8\n        /* \"#utility.yul\":4733:4755   */\n      add\n        /* \"#utility.yul\":4712:4765   */\n      tag_74\n      jump\t// in\n    tag_139:\n        /* \"#utility.yul\":4702:4765   */\n      swap4\n      pop\n        /* \"#utility.yul\":4658:4775   */\n      pop\n        /* \"#utility.yul\":4814:4816   */\n      0x20\n        /* \"#utility.yul\":4840:4893   */\n      tag_140\n        /* \"#utility.yul\":4885:4892   */\n      dup7\n        /* \"#utility.yul\":4876:4882   */\n      dup3\n        /* \"#utility.yul\":4865:4874   */\n      dup8\n        /* \"#utility.yul\":4861:4883   */\n      add\n        /* \"#utility.yul\":4840:4893   */\n      tag_74\n      jump\t// in\n    tag_140:\n        /* \"#utility.yul\":4830:4893   */\n      swap3\n      pop\n        /* \"#utility.yul\":4785:4903   */\n      pop\n        /* \"#utility.yul\":4942:4944   */\n      0x40\n        /* \"#utility.yul\":4968:5021   */\n      tag_141\n        /* \"#utility.yul\":5013:5020   */\n      dup7\n        /* \"#utility.yul\":5004:5010   */\n      dup3\n        /* \"#utility.yul\":4993:5002   */\n      dup8\n        /* \"#utility.yul\":4989:5011   */\n      add\n        /* \"#utility.yul\":4968:5021   */\n      tag_74\n      jump\t// in\n    tag_141:\n        /* \"#utility.yul\":4958:5021   */\n      swap2\n      pop\n        /* \"#utility.yul\":4913:5031   */\n      pop\n        /* \"#utility.yul\":4419:5038   */\n      swap3\n      pop\n      swap3\n      pop\n      swap3\n      jump\t// out\n        /* \"#utility.yul\":5044:5213   */\n    tag_75:\n        /* \"#utility.yul\":5128:5139   */\n      0x00\n        /* \"#utility.yul\":5162:5168   */\n      dup3\n        /* \"#utility.yul\":5157:5160   */\n      dup3\n        /* \"#utility.yul\":5150:5169   */\n      mstore\n        /* \"#utility.yul\":5202:5206   */\n      0x20\n        /* \"#utility.yul\":5197:5200   */\n      dup3\n        /* \"#utility.yul\":5193:5207   */\n      add\n        /* \"#utility.yul\":5178:5207   */\n      swap1\n      pop\n        /* \"#utility.yul\":5044:5213   */\n      swap3\n      swap2\n      pop\n      pop\n      jump\t// out\n        /* \"#utility.yul\":5219:5389   */\n    tag_76:\n        /* \"#utility.yul\":5359:5381   */\n      0x4e6f742074686520706f6c696379686f6c646572000000000000000000000000\n        /* \"#utility.yul\":5355:5356   */\n      0x00\n        /* \"#utility.yul\":5347:5353   */\n      dup3\n        /* \"#utility.yul\":5343:5357   */\n      add\n        /* \"#utility.yul\":5336:5382   */\n      mstore\n        /* \"#utility.yul\":5219:5389   */\n      pop\n      jump\t// out\n        /* \"#utility.yul\":5395:5761   */\n    tag_77:\n        /* \"#utility.yul\":5537:5540   */\n      0x00\n        /* \"#utility.yul\":5558:5625   */\n      tag_145\n        /* \"#utility.yul\":5622:5624   */\n      0x14\n        /* \"#utility.yul\":5617:5620   */\n      dup4\n        /* \"#utility.yul\":5558:5625   */\n      tag_75\n      jump\t// in\n    tag_145:\n        /* \"#utility.yul\":5551:5625   */\n      swap2\n      pop\n        /* \"#utility.yul\":5634:5727   */\n      tag_146\n        /* \"#utility.yul\":5723:5726   */\n      dup3\n        /* \"#utility.yul\":5634:5727   */\n      tag_76\n      jump\t// in\n    tag_146:\n        /* \"#utility.yul\":5752:5754   */\n      0x20\n        /* \"#utility.yul\":5747:5750   */\n      dup3\n        /* \"#utility.yul\":5743:5755   */\n      add\n        /* \"#utility.yul\":5736:5755   */\n      swap1\n      pop\n        /* \"#utility.yul\":5395:5761   */\n      swap2\n      swap1\n      pop\n      jump\t// out\n        /* \"#utility.yul\":5767:6186   */\n    tag_33:\n        /* \"#utility.yul\":5933:5937   */\n      0x00\n        /* \"#utility.yul\":5971:5973   */\n      0x20\n        /* \"#utility.yul\":5960:5969   */\n      dup3\n        /* \"#utility.yul\":5956:5974   */\n      add\n        /* \"#utility.yul\":5948:5974   */\n      swap1\n      pop\n        /* \"#utility.yul\":6020:6029   */\n      dup2\n        /* \"#utility.yul\":6014:6018   */\n      dup2\n        /* \"#utility.yul\":6010:6030   */\n      sub\n        /* \"#utility.yul\":6006:6007   */\n      0x00\n        /* \"#utility.yul\":5995:6004   */\n      dup4\n        /* \"#utility.yul\":5991:6008   */\n      add\n        /* \"#utility.yul\":5984:6031   */\n      mstore\n        /* \"#utility.yul\":6048:6179   */\n      tag_148\n        /* \"#utility.yul\":6174:6178   */\n      dup2\n        /* \"#utility.yul\":6048:6179   */\n      tag_77\n      jump\t// in\n    tag_148:\n        /* \"#utility.yul\":6040:6179   */\n      swap1\n      pop\n        /* \"#utility.yul\":5767:6186   */\n      swap2\n      swap1\n      pop\n      jump\t// out\n        /* \"#utility.yul\":6192:6366   */\n    tag_78:\n        /* \"#utility.yul\":6332:6358   */\n      0x506f6c69637920697320616c7265616479206163746976650000000000000000\n        /* \"#utility.yul\":6328:6329   */\n      0x00\n        /* \"#utility.yul\":6320:6326   */\n      dup3\n        /* \"#utility.yul\":6316:6330   */\n      add\n        /* \"#utility.yul\":6309:6359   */\n      mstore\n        /* \"#utility.yul\":6192:6366   */\n      pop\n      jump\t// out\n        /* \"#utility.yul\":6372:6738   */\n    tag_79:\n        /* \"#utility.yul\":6514:6517   */\n      0x00\n        /* \"#utility.yul\":6535:6602   */\n      tag_151\n        /* \"#utility.yul\":6599:6601   */\n      0x18\n        /* \"#utility.yul\":6594:6597   */\n      dup4\n        /* \"#utility.yul\":6535:6602   */\n      tag_75\n      jump\t// in\n    tag_151:\n        /* \"#utility.yul\":6528:6602   */\n      swap2\n      pop\n        /* \"#utility.yul\":6611:6704   */\n      tag_152\n        /* \"#utility.yul\":6700:6703   */\n      dup3\n        /* \"#utility.yul\":6611:6704   */\n      tag_78\n      jump\t// in\n    tag_152:\n        /* \"#utility.yul\":6729:6731   */\n      0x20\n        /* \"#utility.yul\":6724:6727   */\n      dup3\n        /* \"#utility.yul\":6720:6732   */\n      add\n        /* \"#utility.yul\":6713:6732   */\n      swap1\n      pop\n        /* \"#utility.yul\":6372:6738   */\n      swap2\n      swap1\n      pop\n      jump\t// out\n        /* \"#utility.yul\":6744:7163   */\n    tag_37:\n        /* \"#utility.yul\":6910:6914   */\n      0x00\n        /* \"#utility.yul\":6948:6950   */\n      0x20\n        /* \"#utility.yul\":6937:6946   */\n      dup3\n        /* \"#utility.yul\":6933:6951   */\n      add\n        /* \"#utility.yul\":6925:6951   */\n      swap1\n      pop\n        /* \"#utility.yul\":6997:7006   */\n      dup2\n        /* \"#utility.yul\":6991:6995   */\n      dup2\n        /* \"#utility.yul\":6987:7007   */\n      sub\n        /* \"#utility.yul\":6983:6984   */\n      0x00\n        /* \"#utility.yul\":6972:6981   */\n      dup4\n        /* \"#utility.yul\":6968:6985   */\n      add\n        /* \"#utility.yul\":6961:7008   */\n      mstore\n        /* \"#utility.yul\":7025:7156   */\n      tag_154\n        /* \"#utility.yul\":7151:7155   */\n      dup2\n        /* \"#utility.yul\":7025:7156   */\n      tag_79\n      jump\t// in\n    tag_154:\n        /* \"#utility.yul\":7017:7156   */\n      swap1\n      pop\n        /* \"#utility.yul\":6744:7163   */\n      swap2\n      swap1\n      pop\n      jump\t// out\n        /* \"#utility.yul\":7169:7333   */\n    tag_80:\n        /* \"#utility.yul\":7309:7325   */\n      0x506f6c6963792065787069726564000000000000000000000000000000000000\n        /* \"#utility.yul\":7305:7306   */\n      0x00\n        /* \"#utility.yul\":7297:7303   */\n      dup3\n        /* \"#utility.yul\":7293:7307   */\n      add\n        /* \"#utility.yul\":7286:7326   */\n      mstore\n        /* \"#utility.yul\":7169:7333   */\n      pop\n      jump\t// out\n        /* \"#utility.yul\":7339:7705   */\n    tag_81:\n        /* \"#utility.yul\":7481:7484   */\n      0x00\n        /* \"#utility.yul\":7502:7569   */\n      tag_157\n        /* \"#utility.yul\":7566:7568   */\n      0x0e\n        /* \"#utility.yul\":7561:7564   */\n      dup4\n        /* \"#utility.yul\":7502:7569   */\n      tag_75\n      jump\t// in\n    tag_157:\n        /* \"#utility.yul\":7495:7569   */\n      swap2\n      pop\n        /* \"#utility.yul\":7578:7671   */\n      tag_158\n        /* \"#utility.yul\":7667:7670   */\n      dup3\n        /* \"#utility.yul\":7578:7671   */\n      tag_80\n      jump\t// in\n    tag_158:\n        /* \"#utility.yul\":7696:7698   */\n      0x20\n        /* \"#utility.yul\":7691:7694   */\n      dup3\n        /* \"#utility.yul\":7687:7699   */\n      add\n        /* \"#utility.yul\":7680:7699   */\n      swap1\n      pop\n        /* \"#utility.yul\":7339:7705   */\n      swap2\n      swap1\n      pop\n      jump\t// out\n        /* \"#utility.yul\":7711:8130   */\n    tag_40:\n        /* \"#utility.yul\":7877:7881   */\n      0x00\n        /* \"#utility.yul\":7915:7917   */\n      0x20\n        /* \"#utility.yul\":7904:7913   */\n      dup3\n        /* \"#utility.yul\":7900:7918   */\n      add\n        /* \"#utility.yul\":7892:7918   */\n      swap1\n      pop\n        /* \"#utility.yul\":7964:7973   */\n      dup2\n        /* \"#utility.yul\":7958:7962   */\n      dup2\n        /* \"#utility.yul\":7954:7974   */\n      sub\n        /* \"#utility.yul\":7950:7951   */\n      0x00\n        /* \"#utility.yul\":7939:7948   */\n      dup4\n        /* \"#utility.yul\":7935:7952   */\n      add\n        /* \"#utility.yul\":7928:7975   */\n      mstore\n        /* \"#utility.yul\":7992:8123   */\n      tag_160\n        /* \"#utility.yul\":8118:8122   */\n      dup2\n        /* \"#utility.yul\":7992:8123   */\n      tag_81\n      jump\t// in\n    tag_160:\n        /* \"#utility.yul\":7984:8123   */\n      swap1\n      pop\n        /* \"#utility.yul\":7711:8130   */\n      swap2\n      swap1\n      pop\n      jump\t// out\n        /* \"#utility.yul\":8136:8306   */\n    tag_82:\n        /* \"#utility.yul\":8276:8298   */\n      0x506f6c696379206973206e6f7420616374697665000000000000000000000000\n        /* \"#utility.yul\":8272:8273   */\n      0x00\n        /* \"#utility.yul\":8264:8270   */\n      dup3\n        /* \"#utility.yul\":8260:8274   */\n      add\n        /* \"#utility.yul\":8253:8299   */\n      mstore\n        /* \"#utility.yul\":8136:8306   */\n      pop\n      jump\t// out\n        /* \"#utility.yul\":8312:8678   */\n    tag_83:\n        /* \"#utility.yul\":8454:8457   */\n      0x00\n        /* \"#utility.yul\":8475:8542   */\n      tag_163\n        /* \"#utility.yul\":8539:8541   */\n      0x14\n        /* \"#utility.yul\":8534:8537   */\n      dup4\n        /* \"#utility.yul\":8475:8542   */\n      tag_75\n      jump\t// in\n    tag_163:\n        /* \"#utility.yul\":8468:8542   */\n      swap2\n      pop\n        /* \"#utility.yul\":8551:8644   */\n      tag_164\n        /* \"#utility.yul\":8640:8643   */\n      dup3\n        /* \"#utility.yul\":8551:8644   */\n      tag_82\n      jump\t// in\n    tag_164:\n        /* \"#utility.yul\":8669:8671   */\n      0x20\n        /* \"#utility.yul\":8664:8667   */\n      dup3\n        /* \"#utility.yul\":8660:8672   */\n      add\n        /* \"#utility.yul\":8653:8672   */\n      swap1\n      pop\n        /* \"#utility.yul\":8312:8678   */\n      swap2\n      swap1\n      pop\n      jump\t// out\n        /* \"#utility.yul\":8684:9103   */\n    tag_47:\n        /* \"#utility.yul\":8850:8854   */\n      0x00\n        /* \"#utility.yul\":8888:8890   */\n      0x20\n        /* \"#utility.yul\":8877:8886   */\n      dup3\n        /* \"#utility.yul\":8873:8891   */\n      add\n        /* \"#utility.yul\":8865:8891   */\n      swap1\n      pop\n        /* \"#utility.yul\":8937:8946   */\n      dup2\n        /* \"#utility.yul\":8931:8935   */\n      dup2\n        /* \"#utility.yul\":8927:8947   */\n      sub\n        /* \"#utility.yul\":8923:8924   */\n      0x00\n        /* \"#utility.yul\":8912:8921   */\n      dup4\n        /* \"#utility.yul\":8908:8925   */\n      add\n        /* \"#utility.yul\":8901:8948   */\n      mstore\n        /* \"#utility.yul\":8965:9096   */\n      tag_166\n        /* \"#utility.yul\":9091:9095   */\n      dup2\n        /* \"#utility.yul\":8965:9096   */\n      tag_83\n      jump\t// in\n    tag_166:\n        /* \"#utility.yul\":8957:9096   */\n      swap1\n      pop\n        /* \"#utility.yul\":8684:9103   */\n      swap2\n      swap1\n      pop\n      jump\t// out\n        /* \"#utility.yul\":9109:9339   */\n    tag_84:\n        /* \"#utility.yul\":9249:9283   */\n      0x506f6c69637920616c72656164792065786973747320666f7220746869732070\n        /* \"#utility.yul\":9245:9246   */\n      0x00\n        /* \"#utility.yul\":9237:9243   */\n      dup3\n        /* \"#utility.yul\":9233:9247   */\n      add\n        /* \"#utility.yul\":9226:9284   */\n      mstore\n        /* \"#utility.yul\":9318:9331   */\n      0x6f6c696379686f6c646572000000000000000000000000000000000000000000\n        /* \"#utility.yul\":9313:9315   */\n      0x20\n        /* \"#utility.yul\":9305:9311   */\n      dup3\n        /* \"#utility.yul\":9301:9316   */\n      add\n        /* \"#utility.yul\":9294:9332   */\n      mstore\n        /* \"#utility.yul\":9109:9339   */\n      pop\n      jump\t// out\n        /* \"#utility.yul\":9345:9711   */\n    tag_85:\n        /* \"#utility.yul\":9487:9490   */\n      0x00\n        /* \"#utility.yul\":9508:9575   */\n      tag_169\n        /* \"#utility.yul\":9572:9574   */\n      0x2b\n        /* \"#utility.yul\":9567:9570   */\n      dup4\n        /* \"#utility.yul\":9508:9575   */\n      tag_75\n      jump\t// in\n    tag_169:\n        /* \"#utility.yul\":9501:9575   */\n      swap2\n      pop\n        /* \"#utility.yul\":9584:9677   */\n      tag_170\n        /* \"#utility.yul\":9673:9676   */\n      dup3\n        /* \"#utility.yul\":9584:9677   */\n      tag_84\n      jump\t// in\n    tag_170:\n        /* \"#utility.yul\":9702:9704   */\n      0x40\n        /* \"#utility.yul\":9697:9700   */\n      dup3\n        /* \"#utility.yul\":9693:9705   */\n      add\n        /* \"#utility.yul\":9686:9705   */\n      swap1\n      pop\n        /* \"#utility.yul\":9345:9711   */\n      swap2\n      swap1\n      pop\n      jump\t// out\n        /* \"#utility.yul\":9717:10136   */\n    tag_51:\n        /* \"#utility.yul\":9883:9887   */\n      0x00\n        /* \"#utility.yul\":9921:9923   */\n      0x20\n        /* \"#utility.yul\":9910:9919   */\n      dup3\n        /* \"#utility.yul\":9906:9924   */\n      add\n        /* \"#utility.yul\":9898:9924   */\n      swap1\n      pop\n        /* \"#utility.yul\":9970:9979   */\n      dup2\n        /* \"#utility.yul\":9964:9968   */\n      dup2\n        /* \"#utility.yul\":9960:9980   */\n      sub\n        /* \"#utility.yul\":9956:9957   */\n      0x00\n        /* \"#utility.yul\":9945:9954   */\n      dup4\n        /* \"#utility.yul\":9941:9958   */\n      add\n        /* \"#utility.yul\":9934:9981   */\n      mstore\n        /* \"#utility.yul\":9998:10129   */\n      tag_172\n        /* \"#utility.yul\":10124:10128   */\n      dup2\n        /* \"#utility.yul\":9998:10129   */\n      tag_85\n      jump\t// in\n    tag_172:\n        /* \"#utility.yul\":9990:10129   */\n      swap1\n      pop\n        /* \"#utility.yul\":9717:10136   */\n      swap2\n      swap1\n      pop\n      jump\t// out\n        /* \"#utility.yul\":10142:10322   */\n    tag_86:\n        /* \"#utility.yul\":10190:10267   */\n      0x4e487b7100000000000000000000000000000000000000000000000000000000\n        /* \"#utility.yul\":10187:10188   */\n      0x00\n        /* \"#utility.yul\":10180:10268   */\n      mstore\n        /* \"#utility.yul\":10287:10291   */\n      0x11\n        /* \"#utility.yul\":10284:10285   */\n      0x04\n        /* \"#utility.yul\":10277:10292   */\n      mstore\n        /* \"#utility.yul\":10311:10315   */\n      0x24\n        /* \"#utility.yul\":10308:10309   */\n      0x00\n        /* \"#utility.yul\":10301:10316   */\n      revert\n        /* \"#utility.yul\":10328:10519   */\n    tag_53:\n        /* \"#utility.yul\":10368:10371   */\n      0x00\n        /* \"#utility.yul\":10387:10407   */\n      tag_175\n        /* \"#utility.yul\":10405:10406   */\n      dup3\n        /* \"#utility.yul\":10387:10407   */\n      tag_65\n      jump\t// in\n    tag_175:\n        /* \"#utility.yul\":10382:10407   */\n      swap2\n      pop\n        /* \"#utility.yul\":10421:10441   */\n      tag_176\n        /* \"#utility.yul\":10439:10440   */\n      dup4\n        /* \"#utility.yul\":10421:10441   */\n      tag_65\n      jump\t// in\n    tag_176:\n        /* \"#utility.yul\":10416:10441   */\n      swap3\n      pop\n        /* \"#utility.yul\":10464:10465   */\n      dup3\n        /* \"#utility.yul\":10461:10462   */\n      dup3\n        /* \"#utility.yul\":10457:10466   */\n      add\n        /* \"#utility.yul\":10450:10466   */\n      swap1\n      pop\n        /* \"#utility.yul\":10485:10488   */\n      dup1\n        /* \"#utility.yul\":10482:10483   */\n      dup3\n        /* \"#utility.yul\":10479:10489   */\n      gt\n        /* \"#utility.yul\":10476:10512   */\n      iszero\n      tag_177\n      jumpi\n        /* \"#utility.yul\":10492:10510   */\n      tag_178\n      tag_86\n      jump\t// in\n    tag_178:\n        /* \"#utility.yul\":10476:10512   */\n    tag_177:\n        /* \"#utility.yul\":10328:10519   */\n      swap3\n      swap2\n      pop\n      pop\n      jump\t// out\n        /* \"#utility.yul\":10525:10967   */\n    tag_56:\n        /* \"#utility.yul\":10674:10678   */\n      0x00\n        /* \"#utility.yul\":10712:10714   */\n      0x60\n        /* \"#utility.yul\":10701:10710   */\n      dup3\n        /* \"#utility.yul\":10697:10715   */\n      add\n        /* \"#utility.yul\":10689:10715   */\n      swap1\n      pop\n        /* \"#utility.yul\":10725:10796   */\n      tag_180\n        /* \"#utility.yul\":10793:10794   */\n      0x00\n        /* \"#utility.yul\":10782:10791   */\n      dup4\n        /* \"#utility.yul\":10778:10795   */\n      add\n        /* \"#utility.yul\":10769:10775   */\n      dup7\n        /* \"#utility.yul\":10725:10796   */\n      tag_66\n      jump\t// in\n    tag_180:\n        /* \"#utility.yul\":10806:10878   */\n      tag_181\n        /* \"#utility.yul\":10874:10876   */\n      0x20\n        /* \"#utility.yul\":10863:10872   */\n      dup4\n        /* \"#utility.yul\":10859:10877   */\n      add\n        /* \"#utility.yul\":10850:10856   */\n      dup6\n        /* \"#utility.yul\":10806:10878   */\n      tag_66\n      jump\t// in\n    tag_181:\n        /* \"#utility.yul\":10888:10960   */\n      tag_182\n        /* \"#utility.yul\":10956:10958   */\n      0x40\n        /* \"#utility.yul\":10945:10954   */\n      dup4\n        /* \"#utility.yul\":10941:10959   */\n      add\n        /* \"#utility.yul\":10932:10938   */\n      dup5\n        /* \"#utility.yul\":10888:10960   */\n      tag_66\n      jump\t// in\n    tag_182:\n        /* \"#utility.yul\":10525:10967   */\n      swap5\n      swap4\n      pop\n      pop\n      pop\n      pop\n      jump\t// out\n\n    auxdata: 0xa2646970667358221220020a5127a17694afd2eb9e286e519f8ebfcb748f3887af04eeef5042e325973164736f6c634300081a0033\n}\n",
				"bytecode": {
					"linkReferences": {},
					"object": "6080604052348015600e575f80fd5b50610db28061001c5f395ff3fe608060405234801561000f575f80fd5b5060043610610055575f3560e01c806320e986981461005957806345f23e291461008d578063660d403f146100bd5780638634f7a8146100c7578063d0ab9a89146100d1575b5f80fd5b610073600480360381019061006e91906108c6565b6100ed565b604051610084959493929190610932565b60405180910390f35b6100a760048036038101906100a291906108c6565b610149565b6040516100b49190610a16565b60405180910390f35b6100c561022b565b005b6100cf61042f565b005b6100eb60048036038101906100e69190610a59565b6105ea565b005b5f602052805f5260405f205f91509050805f015f9054906101000a900473ffffffffffffffffffffffffffffffffffffffff1690806001015490806002015490806003015490806004015f9054906101000a900460ff16905085565b610151610826565b5f808373ffffffffffffffffffffffffffffffffffffffff1673ffffffffffffffffffffffffffffffffffffffff1681526020019081526020015f206040518060a00160405290815f82015f9054906101000a900473ffffffffffffffffffffffffffffffffffffffff1673ffffffffffffffffffffffffffffffffffffffff1673ffffffffffffffffffffffffffffffffffffffff168152602001600182015481526020016002820154815260200160038201548152602001600482015f9054906101000a900460ff1615151515815250509050919050565b3373ffffffffffffffffffffffffffffffffffffffff165f803373ffffffffffffffffffffffffffffffffffffffff1673ffffffffffffffffffffffffffffffffffffffff1681526020019081526020015f205f015f9054906101000a900473ffffffffffffffffffffffffffffffffffffffff1673ffffffffffffffffffffffffffffffffffffffff16146102f6576040517f08c379a00000000000000000000000000000000000000000000000000000000081526004016102ed90610b03565b60405180910390fd5b5f805f3373ffffffffffffffffffffffffffffffffffffffff1673ffffffffffffffffffffffffffffffffffffffff1681526020019081526020015f209050806004015f9054906101000a900460ff1615610386576040517f08c379a000000000000000000000000000000000000000000000000000000000815260040161037d90610b6b565b60405180910390fd5b80600301544211156103cd576040517f08c379a00000000000000000000000000000000000000000000000000000000081526004016103c490610bd3565b60405180910390fd5b6001816004015f6101000a81548160ff0219169083151502179055503373ffffffffffffffffffffffffffffffffffffffff167fa5614451a3c2c9884f17850964e40081c39ad6b63a0c92ef5e3eee6c5c25ae5a60405160405180910390a250565b3373ffffffffffffffffffffffffffffffffffffffff165f803373ffffffffffffffffffffffffffffffffffffffff1673ffffffffffffffffffffffffffffffffffffffff1681526020019081526020015f205f015f9054906101000a900473ffffffffffffffffffffffffffffffffffffffff1673ffffffffffffffffffffffffffffffffffffffff16146104fa576040517f08c379a00000000000000000000000000000000000000000000000000000000081526004016104f190610b03565b60405180910390fd5b5f805f3373ffffffffffffffffffffffffffffffffffffffff1673ffffffffffffffffffffffffffffffffffffffff1681526020019081526020015f209050806004015f9054906101000a900460ff16610589576040517f08c379a000000000000000000000000000000000000000000000000000000000815260040161058090610c3b565b60405180910390fd5b5f816004015f6101000a81548160ff0219169083151502179055503373ffffffffffffffffffffffffffffffffffffffff167fd865e7aacd70c01e98fc3483cabb8e68517a9c90ea19f073836f73eb53153c7960405160405180910390a250565b5f73ffffffffffffffffffffffffffffffffffffffff165f803373ffffffffffffffffffffffffffffffffffffffff1673ffffffffffffffffffffffffffffffffffffffff1681526020019081526020015f205f015f9054906101000a900473ffffffffffffffffffffffffffffffffffffffff1673ffffffffffffffffffffffffffffffffffffffff16146106b5576040517f08c379a00000000000000000000000000000000000000000000000000000000081526004016106ac90610cc9565b60405180910390fd5b5f6040518060a001604052803373ffffffffffffffffffffffffffffffffffffffff16815260200185815260200184815260200183426106f59190610d14565b81526020015f15158152509050805f803373ffffffffffffffffffffffffffffffffffffffff1673ffffffffffffffffffffffffffffffffffffffff1681526020019081526020015f205f820151815f015f6101000a81548173ffffffffffffffffffffffffffffffffffffffff021916908373ffffffffffffffffffffffffffffffffffffffff1602179055506020820151816001015560408201518160020155606082015181600301556080820151816004015f6101000a81548160ff0219169083151502179055509050503373ffffffffffffffffffffffffffffffffffffffff167f7d02b09c49332ca74071d4d7d88d4220ec928f86ec5d8773c6faeae4ca86c5b0858585426108099190610d14565b60405161081893929190610d47565b60405180910390a250505050565b6040518060a001604052805f73ffffffffffffffffffffffffffffffffffffffff1681526020015f81526020015f81526020015f81526020015f151581525090565b5f80fd5b5f73ffffffffffffffffffffffffffffffffffffffff82169050919050565b5f6108958261086c565b9050919050565b6108a58161088b565b81146108af575f80fd5b50565b5f813590506108c08161089c565b92915050565b5f602082840312156108db576108da610868565b5b5f6108e8848285016108b2565b91505092915050565b6108fa8161088b565b82525050565b5f819050919050565b61091281610900565b82525050565b5f8115159050919050565b61092c81610918565b82525050565b5f60a0820190506109455f8301886108f1565b6109526020830187610909565b61095f6040830186610909565b61096c6060830185610909565b6109796080830184610923565b9695505050505050565b61098c8161088b565b82525050565b61099b81610900565b82525050565b6109aa81610918565b82525050565b60a082015f8201516109c45f850182610983565b5060208201516109d76020850182610992565b5060408201516109ea6040850182610992565b5060608201516109fd6060850182610992565b506080820151610a1060808501826109a1565b50505050565b5f60a082019050610a295f8301846109b0565b92915050565b610a3881610900565b8114610a42575f80fd5b50565b5f81359050610a5381610a2f565b92915050565b5f805f60608486031215610a7057610a6f610868565b5b5f610a7d86828701610a45565b9350506020610a8e86828701610a45565b9250506040610a9f86828701610a45565b9150509250925092565b5f82825260208201905092915050565b7f4e6f742074686520706f6c696379686f6c6465720000000000000000000000005f82015250565b5f610aed601483610aa9565b9150610af882610ab9565b602082019050919050565b5f6020820190508181035f830152610b1a81610ae1565b9050919050565b7f506f6c69637920697320616c72656164792061637469766500000000000000005f82015250565b5f610b55601883610aa9565b9150610b6082610b21565b602082019050919050565b5f6020820190508181035f830152610b8281610b49565b9050919050565b7f506f6c69637920657870697265640000000000000000000000000000000000005f82015250565b5f610bbd600e83610aa9565b9150610bc882610b89565b602082019050919050565b5f6020820190508181035f830152610bea81610bb1565b9050919050565b7f506f6c696379206973206e6f74206163746976650000000000000000000000005f82015250565b5f610c25601483610aa9565b9150610c3082610bf1565b602082019050919050565b5f6020820190508181035f830152610c5281610c19565b9050919050565b7f506f6c69637920616c72656164792065786973747320666f72207468697320705f8201527f6f6c696379686f6c646572000000000000000000000000000000000000000000602082015250565b5f610cb3602b83610aa9565b9150610cbe82610c59565b604082019050919050565b5f6020820190508181035f830152610ce081610ca7565b9050919050565b7f4e487b71000000000000000000000000000000000000000000000000000000005f52601160045260245ffd5b5f610d1e82610900565b9150610d2983610900565b9250828201905080821115610d4157610d40610ce7565b5b92915050565b5f606082019050610d5a5f830186610909565b610d676020830185610909565b610d746040830184610909565b94935050505056fea2646970667358221220020a5127a17694afd2eb9e286e519f8ebfcb748f3887af04eeef5042e325973164736f6c634300081a0033",
					"opcodes": "PUSH1 0x80 PUSH1 0x40 MSTORE CALLVALUE DUP1 ISZERO PUSH1 0xE JUMPI PUSH0 DUP1 REVERT JUMPDEST POP PUSH2 0xDB2 DUP1 PUSH2 0x1C PUSH0 CODECOPY PUSH0 RETURN INVALID PUSH1 0x80 PUSH1 0x40 MSTORE CALLVALUE DUP1 ISZERO PUSH2 0xF JUMPI PUSH0 DUP1 REVERT JUMPDEST POP PUSH1 0x4 CALLDATASIZE LT PUSH2 0x55 JUMPI PUSH0 CALLDATALOAD PUSH1 0xE0 SHR DUP1 PUSH4 0x20E98698 EQ PUSH2 0x59 JUMPI DUP1 PUSH4 0x45F23E29 EQ PUSH2 0x8D JUMPI DUP1 PUSH4 0x660D403F EQ PUSH2 0xBD JUMPI DUP1 PUSH4 0x8634F7A8 EQ PUSH2 0xC7 JUMPI DUP1 PUSH4 0xD0AB9A89 EQ PUSH2 0xD1 JUMPI JUMPDEST PUSH0 DUP1 REVERT JUMPDEST PUSH2 0x73 PUSH1 0x4 DUP1 CALLDATASIZE SUB DUP2 ADD SWAP1 PUSH2 0x6E SWAP2 SWAP1 PUSH2 0x8C6 JUMP JUMPDEST PUSH2 0xED JUMP JUMPDEST PUSH1 0x40 MLOAD PUSH2 0x84 SWAP6 SWAP5 SWAP4 SWAP3 SWAP2 SWAP1 PUSH2 0x932 JUMP JUMPDEST PUSH1 0x40 MLOAD DUP1 SWAP2 SUB SWAP1 RETURN JUMPDEST PUSH2 0xA7 PUSH1 0x4 DUP1 CALLDATASIZE SUB DUP2 ADD SWAP1 PUSH2 0xA2 SWAP2 SWAP1 PUSH2 0x8C6 JUMP JUMPDEST PUSH2 0x149 JUMP JUMPDEST PUSH1 0x40 MLOAD PUSH2 0xB4 SWAP2 SWAP1 PUSH2 0xA16 JUMP JUMPDEST PUSH1 0x40 MLOAD DUP1 SWAP2 SUB SWAP1 RETURN JUMPDEST PUSH2 0xC5 PUSH2 0x22B JUMP JUMPDEST STOP JUMPDEST PUSH2 0xCF PUSH2 0x42F JUMP JUMPDEST STOP JUMPDEST PUSH2 0xEB PUSH1 0x4 DUP1 CALLDATASIZE SUB DUP2 ADD SWAP1 PUSH2 0xE6 SWAP2 SWAP1 PUSH2 0xA59 JUMP JUMPDEST PUSH2 0x5EA JUMP JUMPDEST STOP JUMPDEST PUSH0 PUSH1 0x20 MSTORE DUP1 PUSH0 MSTORE PUSH1 0x40 PUSH0 KECCAK256 PUSH0 SWAP2 POP SWAP1 POP DUP1 PUSH0 ADD PUSH0 SWAP1 SLOAD SWAP1 PUSH2 0x100 EXP SWAP1 DIV PUSH20 0xFFFFFFFFFFFFFFFFFFFFFFFFFFFFFFFFFFFFFFFF AND SWAP1 DUP1 PUSH1 0x1 ADD SLOAD SWAP1 DUP1 PUSH1 0x2 ADD SLOAD SWAP1 DUP1 PUSH1 0x3 ADD SLOAD SWAP1 DUP1 PUSH1 0x4 ADD PUSH0 SWAP1 SLOAD SWAP1 PUSH2 0x100 EXP SWAP1 DIV PUSH1 0xFF AND SWAP1 POP DUP6 JUMP JUMPDEST PUSH2 0x151 PUSH2 0x826 JUMP JUMPDEST PUSH0 DUP1 DUP4 PUSH20 0xFFFFFFFFFFFFFFFFFFFFFFFFFFFFFFFFFFFFFFFF AND PUSH20 0xFFFFFFFFFFFFFFFFFFFFFFFFFFFFFFFFFFFFFFFF AND DUP2 MSTORE PUSH1 0x20 ADD SWAP1 DUP2 MSTORE PUSH1 0x20 ADD PUSH0 KECCAK256 PUSH1 0x40 MLOAD DUP1 PUSH1 0xA0 ADD PUSH1 0x40 MSTORE SWAP1 DUP2 PUSH0 DUP3 ADD PUSH0 SWAP1 SLOAD SWAP1 PUSH2 0x100 EXP SWAP1 DIV PUSH20 0xFFFFFFFFFFFFFFFFFFFFFFFFFFFFFFFFFFFFFFFF AND PUSH20 0xFFFFFFFFFFFFFFFFFFFFFFFFFFFFFFFFFFFFFFFF AND PUSH20 0xFFFFFFFFFFFFFFFFFFFFFFFFFFFFFFFFFFFFFFFF AND DUP2 MSTORE PUSH1 0x20 ADD PUSH1 0x1 DUP3 ADD SLOAD DUP2 MSTORE PUSH1 0x20 ADD PUSH1 0x2 DUP3 ADD SLOAD DUP2 MSTORE PUSH1 0x20 ADD PUSH1 0x3 DUP3 ADD SLOAD DUP2 MSTORE PUSH1 0x20 ADD PUSH1 0x4 DUP3 ADD PUSH0 SWAP1 SLOAD SWAP1 PUSH2 0x100 EXP SWAP1 DIV PUSH1 0xFF AND ISZERO ISZERO ISZERO ISZERO DUP2 MSTORE POP POP SWAP1 POP SWAP2 SWAP1 POP JUMP JUMPDEST CALLER PUSH20 0xFFFFFFFFFFFFFFFFFFFFFFFFFFFFFFFFFFFFFFFF AND PUSH0 DUP1 CALLER PUSH20 0xFFFFFFFFFFFFFFFFFFFFFFFFFFFFFFFFFFFFFFFF AND PUSH20 0xFFFFFFFFFFFFFFFFFFFFFFFFFFFFFFFFFFFFFFFF AND DUP2 MSTORE PUSH1 0x20 ADD SWAP1 DUP2 MSTORE PUSH1 0x20 ADD PUSH0 KECCAK256 PUSH0 ADD PUSH0 SWAP1 SLOAD SWAP1 PUSH2 0x100 EXP SWAP1 DIV PUSH20 0xFFFFFFFFFFFFFFFFFFFFFFFFFFFFFFFFFFFFFFFF AND PUSH20 0xFFFFFFFFFFFFFFFFFFFFFFFFFFFFFFFFFFFFFFFF AND EQ PUSH2 0x2F6 JUMPI PUSH1 0x40 MLOAD PUSH32 0x8C379A000000000000000000000000000000000000000000000000000000000 DUP2 MSTORE PUSH1 0x4 ADD PUSH2 0x2ED SWAP1 PUSH2 0xB03 JUMP JUMPDEST PUSH1 0x40 MLOAD DUP1 SWAP2 SUB SWAP1 REVERT JUMPDEST PUSH0 DUP1 PUSH0 CALLER PUSH20 0xFFFFFFFFFFFFFFFFFFFFFFFFFFFFFFFFFFFFFFFF AND PUSH20 0xFFFFFFFFFFFFFFFFFFFFFFFFFFFFFFFFFFFFFFFF AND DUP2 MSTORE PUSH1 0x20 ADD SWAP1 DUP2 MSTORE PUSH1 0x20 ADD PUSH0 KECCAK256 SWAP1 POP DUP1 PUSH1 0x4 ADD PUSH0 SWAP1 SLOAD SWAP1 PUSH2 0x100 EXP SWAP1 DIV PUSH1 0xFF AND ISZERO PUSH2 0x386 JUMPI PUSH1 0x40 MLOAD PUSH32 0x8C379A000000000000000000000000000000000000000000000000000000000 DUP2 MSTORE PUSH1 0x4 ADD PUSH2 0x37D SWAP1 PUSH2 0xB6B JUMP JUMPDEST PUSH1 0x40 MLOAD DUP1 SWAP2 SUB SWAP1 REVERT JUMPDEST DUP1 PUSH1 0x3 ADD SLOAD TIMESTAMP GT ISZERO PUSH2 0x3CD JUMPI PUSH1 0x40 MLOAD PUSH32 0x8C379A000000000000000000000000000000000000000000000000000000000 DUP2 MSTORE PUSH1 0x4 ADD PUSH2 0x3C4 SWAP1 PUSH2 0xBD3 JUMP JUMPDEST PUSH1 0x40 MLOAD DUP1 SWAP2 SUB SWAP1 REVERT JUMPDEST PUSH1 0x1 DUP2 PUSH1 0x4 ADD PUSH0 PUSH2 0x100 EXP DUP2 SLOAD DUP2 PUSH1 0xFF MUL NOT AND SWAP1 DUP4 ISZERO ISZERO MUL OR SWAP1 SSTORE POP CALLER PUSH20 0xFFFFFFFFFFFFFFFFFFFFFFFFFFFFFFFFFFFFFFFF AND PUSH32 0xA5614451A3C2C9884F17850964E40081C39AD6B63A0C92EF5E3EEE6C5C25AE5A PUSH1 0x40 MLOAD PUSH1 0x40 MLOAD DUP1 SWAP2 SUB SWAP1 LOG2 POP JUMP JUMPDEST CALLER PUSH20 0xFFFFFFFFFFFFFFFFFFFFFFFFFFFFFFFFFFFFFFFF AND PUSH0 DUP1 CALLER PUSH20 0xFFFFFFFFFFFFFFFFFFFFFFFFFFFFFFFFFFFFFFFF AND PUSH20 0xFFFFFFFFFFFFFFFFFFFFFFFFFFFFFFFFFFFFFFFF AND DUP2 MSTORE PUSH1 0x20 ADD SWAP1 DUP2 MSTORE PUSH1 0x20 ADD PUSH0 KECCAK256 PUSH0 ADD PUSH0 SWAP1 SLOAD SWAP1 PUSH2 0x100 EXP SWAP1 DIV PUSH20 0xFFFFFFFFFFFFFFFFFFFFFFFFFFFFFFFFFFFFFFFF AND PUSH20 0xFFFFFFFFFFFFFFFFFFFFFFFFFFFFFFFFFFFFFFFF AND EQ PUSH2 0x4FA JUMPI PUSH1 0x40 MLOAD PUSH32 0x8C379A000000000000000000000000000000000000000000000000000000000 DUP2 MSTORE PUSH1 0x4 ADD PUSH2 0x4F1 SWAP1 PUSH2 0xB03 JUMP JUMPDEST PUSH1 0x40 MLOAD DUP1 SWAP2 SUB SWAP1 REVERT JUMPDEST PUSH0 DUP1 PUSH0 CALLER PUSH20 0xFFFFFFFFFFFFFFFFFFFFFFFFFFFFFFFFFFFFFFFF AND PUSH20 0xFFFFFFFFFFFFFFFFFFFFFFFFFFFFFFFFFFFFFFFF AND DUP2 MSTORE PUSH1 0x20 ADD SWAP1 DUP2 MSTORE PUSH1 0x20 ADD PUSH0 KECCAK256 SWAP1 POP DUP1 PUSH1 0x4 ADD PUSH0 SWAP1 SLOAD SWAP1 PUSH2 0x100 EXP SWAP1 DIV PUSH1 0xFF AND PUSH2 0x589 JUMPI PUSH1 0x40 MLOAD PUSH32 0x8C379A000000000000000000000000000000000000000000000000000000000 DUP2 MSTORE PUSH1 0x4 ADD PUSH2 0x580 SWAP1 PUSH2 0xC3B JUMP JUMPDEST PUSH1 0x40 MLOAD DUP1 SWAP2 SUB SWAP1 REVERT JUMPDEST PUSH0 DUP2 PUSH1 0x4 ADD PUSH0 PUSH2 0x100 EXP DUP2 SLOAD DUP2 PUSH1 0xFF MUL NOT AND SWAP1 DUP4 ISZERO ISZERO MUL OR SWAP1 SSTORE POP CALLER PUSH20 0xFFFFFFFFFFFFFFFFFFFFFFFFFFFFFFFFFFFFFFFF AND PUSH32 0xD865E7AACD70C01E98FC3483CABB8E68517A9C90EA19F073836F73EB53153C79 PUSH1 0x40 MLOAD PUSH1 0x40 MLOAD DUP1 SWAP2 SUB SWAP1 LOG2 POP JUMP JUMPDEST PUSH0 PUSH20 0xFFFFFFFFFFFFFFFFFFFFFFFFFFFFFFFFFFFFFFFF AND PUSH0 DUP1 CALLER PUSH20 0xFFFFFFFFFFFFFFFFFFFFFFFFFFFFFFFFFFFFFFFF AND PUSH20 0xFFFFFFFFFFFFFFFFFFFFFFFFFFFFFFFFFFFFFFFF AND DUP2 MSTORE PUSH1 0x20 ADD SWAP1 DUP2 MSTORE PUSH1 0x20 ADD PUSH0 KECCAK256 PUSH0 ADD PUSH0 SWAP1 SLOAD SWAP1 PUSH2 0x100 EXP SWAP1 DIV PUSH20 0xFFFFFFFFFFFFFFFFFFFFFFFFFFFFFFFFFFFFFFFF AND PUSH20 0xFFFFFFFFFFFFFFFFFFFFFFFFFFFFFFFFFFFFFFFF AND EQ PUSH2 0x6B5 JUMPI PUSH1 0x40 MLOAD PUSH32 0x8C379A000000000000000000000000000000000000000000000000000000000 DUP2 MSTORE PUSH1 0x4 ADD PUSH2 0x6AC SWAP1 PUSH2 0xCC9 JUMP JUMPDEST PUSH1 0x40 MLOAD DUP1 SWAP2 SUB SWAP1 REVERT JUMPDEST PUSH0 PUSH1 0x40 MLOAD DUP1 PUSH1 0xA0 ADD PUSH1 0x40 MSTORE DUP1 CALLER PUSH20 0xFFFFFFFFFFFFFFFFFFFFFFFFFFFFFFFFFFFFFFFF AND DUP2 MSTORE PUSH1 0x20 ADD DUP6 DUP2 MSTORE PUSH1 0x20 ADD DUP5 DUP2 MSTORE PUSH1 0x20 ADD DUP4 TIMESTAMP PUSH2 0x6F5 SWAP2 SWAP1 PUSH2 0xD14 JUMP JUMPDEST DUP2 MSTORE PUSH1 0x20 ADD PUSH0 ISZERO ISZERO DUP2 MSTORE POP SWAP1 POP DUP1 PUSH0 DUP1 CALLER PUSH20 0xFFFFFFFFFFFFFFFFFFFFFFFFFFFFFFFFFFFFFFFF AND PUSH20 0xFFFFFFFFFFFFFFFFFFFFFFFFFFFFFFFFFFFFFFFF AND DUP2 MSTORE PUSH1 0x20 ADD SWAP1 DUP2 MSTORE PUSH1 0x20 ADD PUSH0 KECCAK256 PUSH0 DUP3 ADD MLOAD DUP2 PUSH0 ADD PUSH0 PUSH2 0x100 EXP DUP2 SLOAD DUP2 PUSH20 0xFFFFFFFFFFFFFFFFFFFFFFFFFFFFFFFFFFFFFFFF MUL NOT AND SWAP1 DUP4 PUSH20 0xFFFFFFFFFFFFFFFFFFFFFFFFFFFFFFFFFFFFFFFF AND MUL OR SWAP1 SSTORE POP PUSH1 0x20 DUP3 ADD MLOAD DUP2 PUSH1 0x1 ADD SSTORE PUSH1 0x40 DUP3 ADD MLOAD DUP2 PUSH1 0x2 ADD SSTORE PUSH1 0x60 DUP3 ADD MLOAD DUP2 PUSH1 0x3 ADD SSTORE PUSH1 0x80 DUP3 ADD MLOAD DUP2 PUSH1 0x4 ADD PUSH0 PUSH2 0x100 EXP DUP2 SLOAD DUP2 PUSH1 0xFF MUL NOT AND SWAP1 DUP4 ISZERO ISZERO MUL OR SWAP1 SSTORE POP SWAP1 POP POP CALLER PUSH20 0xFFFFFFFFFFFFFFFFFFFFFFFFFFFFFFFFFFFFFFFF AND PUSH32 0x7D02B09C49332CA74071D4D7D88D4220EC928F86EC5D8773C6FAEAE4CA86C5B0 DUP6 DUP6 DUP6 TIMESTAMP PUSH2 0x809 SWAP2 SWAP1 PUSH2 0xD14 JUMP JUMPDEST PUSH1 0x40 MLOAD PUSH2 0x818 SWAP4 SWAP3 SWAP2 SWAP1 PUSH2 0xD47 JUMP JUMPDEST PUSH1 0x40 MLOAD DUP1 SWAP2 SUB SWAP1 LOG2 POP POP POP POP JUMP JUMPDEST PUSH1 0x40 MLOAD DUP1 PUSH1 0xA0 ADD PUSH1 0x40 MSTORE DUP1 PUSH0 PUSH20 0xFFFFFFFFFFFFFFFFFFFFFFFFFFFFFFFFFFFFFFFF AND DUP2 MSTORE PUSH1 0x20 ADD PUSH0 DUP2 MSTORE PUSH1 0x20 ADD PUSH0 DUP2 MSTORE PUSH1 0x20 ADD PUSH0 DUP2 MSTORE PUSH1 0x20 ADD PUSH0 ISZERO ISZERO DUP2 MSTORE POP SWAP1 JUMP JUMPDEST PUSH0 DUP1 REVERT JUMPDEST PUSH0 PUSH20 0xFFFFFFFFFFFFFFFFFFFFFFFFFFFFFFFFFFFFFFFF DUP3 AND SWAP1 POP SWAP2 SWAP1 POP JUMP JUMPDEST PUSH0 PUSH2 0x895 DUP3 PUSH2 0x86C JUMP JUMPDEST SWAP1 POP SWAP2 SWAP1 POP JUMP JUMPDEST PUSH2 0x8A5 DUP2 PUSH2 0x88B JUMP JUMPDEST DUP2 EQ PUSH2 0x8AF JUMPI PUSH0 DUP1 REVERT JUMPDEST POP JUMP JUMPDEST PUSH0 DUP2 CALLDATALOAD SWAP1 POP PUSH2 0x8C0 DUP2 PUSH2 0x89C JUMP JUMPDEST SWAP3 SWAP2 POP POP JUMP JUMPDEST PUSH0 PUSH1 0x20 DUP3 DUP5 SUB SLT ISZERO PUSH2 0x8DB JUMPI PUSH2 0x8DA PUSH2 0x868 JUMP JUMPDEST JUMPDEST PUSH0 PUSH2 0x8E8 DUP5 DUP3 DUP6 ADD PUSH2 0x8B2 JUMP JUMPDEST SWAP2 POP POP SWAP3 SWAP2 POP POP JUMP JUMPDEST PUSH2 0x8FA DUP2 PUSH2 0x88B JUMP JUMPDEST DUP3 MSTORE POP POP JUMP JUMPDEST PUSH0 DUP2 SWAP1 POP SWAP2 SWAP1 POP JUMP JUMPDEST PUSH2 0x912 DUP2 PUSH2 0x900 JUMP JUMPDEST DUP3 MSTORE POP POP JUMP JUMPDEST PUSH0 DUP2 ISZERO ISZERO SWAP1 POP SWAP2 SWAP1 POP JUMP JUMPDEST PUSH2 0x92C DUP2 PUSH2 0x918 JUMP JUMPDEST DUP3 MSTORE POP POP JUMP JUMPDEST PUSH0 PUSH1 0xA0 DUP3 ADD SWAP1 POP PUSH2 0x945 PUSH0 DUP4 ADD DUP9 PUSH2 0x8F1 JUMP JUMPDEST PUSH2 0x952 PUSH1 0x20 DUP4 ADD DUP8 PUSH2 0x909 JUMP JUMPDEST PUSH2 0x95F PUSH1 0x40 DUP4 ADD DUP7 PUSH2 0x909 JUMP JUMPDEST PUSH2 0x96C PUSH1 0x60 DUP4 ADD DUP6 PUSH2 0x909 JUMP JUMPDEST PUSH2 0x979 PUSH1 0x80 DUP4 ADD DUP5 PUSH2 0x923 JUMP JUMPDEST SWAP7 SWAP6 POP POP POP POP POP POP JUMP JUMPDEST PUSH2 0x98C DUP2 PUSH2 0x88B JUMP JUMPDEST DUP3 MSTORE POP POP JUMP JUMPDEST PUSH2 0x99B DUP2 PUSH2 0x900 JUMP JUMPDEST DUP3 MSTORE POP POP JUMP JUMPDEST PUSH2 0x9AA DUP2 PUSH2 0x918 JUMP JUMPDEST DUP3 MSTORE POP POP JUMP JUMPDEST PUSH1 0xA0 DUP3 ADD PUSH0 DUP3 ADD MLOAD PUSH2 0x9C4 PUSH0 DUP6 ADD DUP3 PUSH2 0x983 JUMP JUMPDEST POP PUSH1 0x20 DUP3 ADD MLOAD PUSH2 0x9D7 PUSH1 0x20 DUP6 ADD DUP3 PUSH2 0x992 JUMP JUMPDEST POP PUSH1 0x40 DUP3 ADD MLOAD PUSH2 0x9EA PUSH1 0x40 DUP6 ADD DUP3 PUSH2 0x992 JUMP JUMPDEST POP PUSH1 0x60 DUP3 ADD MLOAD PUSH2 0x9FD PUSH1 0x60 DUP6 ADD DUP3 PUSH2 0x992 JUMP JUMPDEST POP PUSH1 0x80 DUP3 ADD MLOAD PUSH2 0xA10 PUSH1 0x80 DUP6 ADD DUP3 PUSH2 0x9A1 JUMP JUMPDEST POP POP POP POP JUMP JUMPDEST PUSH0 PUSH1 0xA0 DUP3 ADD SWAP1 POP PUSH2 0xA29 PUSH0 DUP4 ADD DUP5 PUSH2 0x9B0 JUMP JUMPDEST SWAP3 SWAP2 POP POP JUMP JUMPDEST PUSH2 0xA38 DUP2 PUSH2 0x900 JUMP JUMPDEST DUP2 EQ PUSH2 0xA42 JUMPI PUSH0 DUP1 REVERT JUMPDEST POP JUMP JUMPDEST PUSH0 DUP2 CALLDATALOAD SWAP1 POP PUSH2 0xA53 DUP2 PUSH2 0xA2F JUMP JUMPDEST SWAP3 SWAP2 POP POP JUMP JUMPDEST PUSH0 DUP1 PUSH0 PUSH1 0x60 DUP5 DUP7 SUB SLT ISZERO PUSH2 0xA70 JUMPI PUSH2 0xA6F PUSH2 0x868 JUMP JUMPDEST JUMPDEST PUSH0 PUSH2 0xA7D DUP7 DUP3 DUP8 ADD PUSH2 0xA45 JUMP JUMPDEST SWAP4 POP POP PUSH1 0x20 PUSH2 0xA8E DUP7 DUP3 DUP8 ADD PUSH2 0xA45 JUMP JUMPDEST SWAP3 POP POP PUSH1 0x40 PUSH2 0xA9F DUP7 DUP3 DUP8 ADD PUSH2 0xA45 JUMP JUMPDEST SWAP2 POP POP SWAP3 POP SWAP3 POP SWAP3 JUMP JUMPDEST PUSH0 DUP3 DUP3 MSTORE PUSH1 0x20 DUP3 ADD SWAP1 POP SWAP3 SWAP2 POP POP JUMP JUMPDEST PUSH32 0x4E6F742074686520706F6C696379686F6C646572000000000000000000000000 PUSH0 DUP3 ADD MSTORE POP JUMP JUMPDEST PUSH0 PUSH2 0xAED PUSH1 0x14 DUP4 PUSH2 0xAA9 JUMP JUMPDEST SWAP2 POP PUSH2 0xAF8 DUP3 PUSH2 0xAB9 JUMP JUMPDEST PUSH1 0x20 DUP3 ADD SWAP1 POP SWAP2 SWAP1 POP JUMP JUMPDEST PUSH0 PUSH1 0x20 DUP3 ADD SWAP1 POP DUP2 DUP2 SUB PUSH0 DUP4 ADD MSTORE PUSH2 0xB1A DUP2 PUSH2 0xAE1 JUMP JUMPDEST SWAP1 POP SWAP2 SWAP1 POP JUMP JUMPDEST PUSH32 0x506F6C69637920697320616C7265616479206163746976650000000000000000 PUSH0 DUP3 ADD MSTORE POP JUMP JUMPDEST PUSH0 PUSH2 0xB55 PUSH1 0x18 DUP4 PUSH2 0xAA9 JUMP JUMPDEST SWAP2 POP PUSH2 0xB60 DUP3 PUSH2 0xB21 JUMP JUMPDEST PUSH1 0x20 DUP3 ADD SWAP1 POP SWAP2 SWAP1 POP JUMP JUMPDEST PUSH0 PUSH1 0x20 DUP3 ADD SWAP1 POP DUP2 DUP2 SUB PUSH0 DUP4 ADD MSTORE PUSH2 0xB82 DUP2 PUSH2 0xB49 JUMP JUMPDEST SWAP1 POP SWAP2 SWAP1 POP JUMP JUMPDEST PUSH32 0x506F6C6963792065787069726564000000000000000000000000000000000000 PUSH0 DUP3 ADD MSTORE POP JUMP JUMPDEST PUSH0 PUSH2 0xBBD PUSH1 0xE DUP4 PUSH2 0xAA9 JUMP JUMPDEST SWAP2 POP PUSH2 0xBC8 DUP3 PUSH2 0xB89 JUMP JUMPDEST PUSH1 0x20 DUP3 ADD SWAP1 POP SWAP2 SWAP1 POP JUMP JUMPDEST PUSH0 PUSH1 0x20 DUP3 ADD SWAP1 POP DUP2 DUP2 SUB PUSH0 DUP4 ADD MSTORE PUSH2 0xBEA DUP2 PUSH2 0xBB1 JUMP JUMPDEST SWAP1 POP SWAP2 SWAP1 POP JUMP JUMPDEST PUSH32 0x506F6C696379206973206E6F7420616374697665000000000000000000000000 PUSH0 DUP3 ADD MSTORE POP JUMP JUMPDEST PUSH0 PUSH2 0xC25 PUSH1 0x14 DUP4 PUSH2 0xAA9 JUMP JUMPDEST SWAP2 POP PUSH2 0xC30 DUP3 PUSH2 0xBF1 JUMP JUMPDEST PUSH1 0x20 DUP3 ADD SWAP1 POP SWAP2 SWAP1 POP JUMP JUMPDEST PUSH0 PUSH1 0x20 DUP3 ADD SWAP1 POP DUP2 DUP2 SUB PUSH0 DUP4 ADD MSTORE PUSH2 0xC52 DUP2 PUSH2 0xC19 JUMP JUMPDEST SWAP1 POP SWAP2 SWAP1 POP JUMP JUMPDEST PUSH32 0x506F6C69637920616C72656164792065786973747320666F7220746869732070 PUSH0 DUP3 ADD MSTORE PUSH32 0x6F6C696379686F6C646572000000000000000000000000000000000000000000 PUSH1 0x20 DUP3 ADD MSTORE POP JUMP JUMPDEST PUSH0 PUSH2 0xCB3 PUSH1 0x2B DUP4 PUSH2 0xAA9 JUMP JUMPDEST SWAP2 POP PUSH2 0xCBE DUP3 PUSH2 0xC59 JUMP JUMPDEST PUSH1 0x40 DUP3 ADD SWAP1 POP SWAP2 SWAP1 POP JUMP JUMPDEST PUSH0 PUSH1 0x20 DUP3 ADD SWAP1 POP DUP2 DUP2 SUB PUSH0 DUP4 ADD MSTORE PUSH2 0xCE0 DUP2 PUSH2 0xCA7 JUMP JUMPDEST SWAP1 POP SWAP2 SWAP1 POP JUMP JUMPDEST PUSH32 0x4E487B7100000000000000000000000000000000000000000000000000000000 PUSH0 MSTORE PUSH1 0x11 PUSH1 0x4 MSTORE PUSH1 0x24 PUSH0 REVERT JUMPDEST PUSH0 PUSH2 0xD1E DUP3 PUSH2 0x900 JUMP JUMPDEST SWAP2 POP PUSH2 0xD29 DUP4 PUSH2 0x900 JUMP JUMPDEST SWAP3 POP DUP3 DUP3 ADD SWAP1 POP DUP1 DUP3 GT ISZERO PUSH2 0xD41 JUMPI PUSH2 0xD40 PUSH2 0xCE7 JUMP JUMPDEST JUMPDEST SWAP3 SWAP2 POP POP JUMP JUMPDEST PUSH0 PUSH1 0x60 DUP3 ADD SWAP1 POP PUSH2 0xD5A PUSH0 DUP4 ADD DUP7 PUSH2 0x909 JUMP JUMPDEST PUSH2 0xD67 PUSH1 0x20 DUP4 ADD DUP6 PUSH2 0x909 JUMP JUMPDEST PUSH2 0xD74 PUSH1 0x40 DUP4 ADD DUP5 PUSH2 0x909 JUMP JUMPDEST SWAP5 SWAP4 POP POP POP POP JUMP INVALID LOG2 PUSH5 0x6970667358 0x22 SLT KECCAK256 MUL EXP MLOAD 0x27 LOG1 PUSH23 0x94AFD2EB9E286E519F8EBFCB748F3887AF04EEEF5042E3 0x25 SWAP8 BALANCE PUSH5 0x736F6C6343 STOP ADDMOD BYTE STOP CALLER "
				},
				"gasEstimates": {
					"creation": {
						"codeDepositCost": "701200",
						"executionCost": "732",
						"totalCost": "701932"
					},
					"external": {
						"activatePolicy()": "32249",
						"createPolicy(uint256,uint256,uint256)": "infinite",
						"deactivatePolicy()": "30136",
						"getPolicyDetails(address)": "infinite",
						"policies(address)": "infinite"
					}
				},
				"methodIdentifiers": {
					"activatePolicy()": "660d403f",
					"createPolicy(uint256,uint256,uint256)": "d0ab9a89",
					"deactivatePolicy()": "8634f7a8",
					"getPolicyDetails(address)": "45f23e29",
					"policies(address)": "20e98698"
				}
			},
			"storageLayout": {
				"storage": [
					{
						"astId": 17,
						"contract": "contracts/InsurancePolicy.sol:InsurancePolicy",
						"label": "policies",
						"offset": 0,
						"slot": "0",
						"type": "t_mapping(t_address,t_struct(Policy)12_storage)"
					}
				],
				"types": {
					"t_address": {
						"encoding": "inplace",
						"label": "address",
						"numberOfBytes": "20"
					},
					"t_bool": {
						"encoding": "inplace",
						"label": "bool",
						"numberOfBytes": "1"
					},
					"t_mapping(t_address,t_struct(Policy)12_storage)": {
						"encoding": "mapping",
						"key": "t_address",
						"label": "mapping(address => struct InsurancePolicy.Policy)",
						"numberOfBytes": "32",
						"value": "t_struct(Policy)12_storage"
					},
					"t_struct(Policy)12_storage": {
						"encoding": "inplace",
						"label": "struct InsurancePolicy.Policy",
						"members": [
							{
								"astId": 3,
								"contract": "contracts/InsurancePolicy.sol:InsurancePolicy",
								"label": "policyholder",
								"offset": 0,
								"slot": "0",
								"type": "t_address"
							},
							{
								"astId": 5,
								"contract": "contracts/InsurancePolicy.sol:InsurancePolicy",
								"label": "premium",
								"offset": 0,
								"slot": "1",
								"type": "t_uint256"
							},
							{
								"astId": 7,
								"contract": "contracts/InsurancePolicy.sol:InsurancePolicy",
								"label": "coverage",
								"offset": 0,
								"slot": "2",
								"type": "t_uint256"
							},
							{
								"astId": 9,
								"contract": "contracts/InsurancePolicy.sol:InsurancePolicy",
								"label": "expirationDate",
								"offset": 0,
								"slot": "3",
								"type": "t_uint256"
							},
							{
								"astId": 11,
								"contract": "contracts/InsurancePolicy.sol:InsurancePolicy",
								"label": "active",
								"offset": 0,
								"slot": "4",
								"type": "t_bool"
							}
						],
						"numberOfBytes": "160"
					},
					"t_uint256": {
						"encoding": "inplace",
						"label": "uint256",
						"numberOfBytes": "32"
					}
				}
			},
			"userdoc": {
				"kind": "user",
				"methods": {},
				"version": 1
			}
		}
	}
}