{
  "contractName": "InsurancePolicy",
  "abi": [
    {
      "anonymous": false,
      "inputs": [
        {
          "indexed": true,
          "internalType": "address",
          "name": "policyholder",
          "type": "address"
        },
        {
          "indexed": false,
          "internalType": "uint256",
          "name": "premium",
          "type": "uint256"
        },
        {
          "indexed": false,
          "internalType": "uint256",
          "name": "coverage",
          "type": "uint256"
        },
        {
          "indexed": false,
          "internalType": "uint256",
          "name": "expirationDate",
          "type": "uint256"
        }
      ],
      "name": "PolicyCreated",
      "type": "event"
    },
    {
      "inputs": [
        {
          "internalType": "uint256",
          "name": "",
          "type": "uint256"
        }
      ],
      "name": "policies",
      "outputs": [
        {
          "internalType": "address",
          "name": "policyholder",
          "type": "address"
        },
        {
          "internalType": "uint256",
          "name": "premium",
          "type": "uint256"
        },
        {
          "internalType": "uint256",
          "name": "coverage",
          "type": "uint256"
        },
        {
          "internalType": "uint256",
          "name": "expirationDate",
          "type": "uint256"
        },
        {
          "internalType": "bool",
          "name": "active",
          "type": "bool"
        }
      ],
      "stateMutability": "view",
      "type": "function"
    }
  ],
  "bytecode": "0x6080604052348015600e575f80fd5b5061021d8061001c5f395ff3fe608060405234801561000f575f80fd5b5060043610610029575f3560e01c8063d3e894831461002d575b5f80fd5b61004760048036038101906100429190610103565b610061565b604051610058959493929190610196565b60405180910390f35b5f818154811061006f575f80fd5b905f5260205f2090600502015f91509050805f015f9054906101000a900473ffffffffffffffffffffffffffffffffffffffff1690806001015490806002015490806003015490806004015f9054906101000a900460ff16905085565b5f80fd5b5f819050919050565b6100e2816100d0565b81146100ec575f80fd5b50565b5f813590506100fd816100d9565b92915050565b5f60208284031215610118576101176100cc565b5b5f610125848285016100ef565b91505092915050565b5f73ffffffffffffffffffffffffffffffffffffffff82169050919050565b5f6101578261012e565b9050919050565b6101678161014d565b82525050565b610176816100d0565b82525050565b5f8115159050919050565b6101908161017c565b82525050565b5f60a0820190506101a95f83018861015e565b6101b6602083018761016d565b6101c3604083018661016d565b6101d0606083018561016d565b6101dd6080830184610187565b969550505050505056fea2646970667358221220bab1994b337217b31c739fdd71eda0562ea95259c8c1d125b09a69d144487a0064736f6c634300081a0033",
  "immutableReferences": {},
  "source": "pragma solidity ^0.8.0;\n\ncontract InsurancePolicy {\n    struct Policy {\n        address policyholder;\n        uint256 premium;\n        uint256 coverage;\n        uint256 expirationDate;\n        bool active;\n    }\n\n    Policy[] public policies;\n\n    event PolicyCreated(address indexed policyholder, uint256 premium, uint256 coverage, uint256 expirationDate);\n}\n",
  "sourcePath": "/Users/vijaykumarvemana/Documents/cohort/decentralized-insurance/contracts/InsurancePolicy.sol",
  "compiler": {
    "name": "solc",
    "version": "0.8.26+commit.8a97fa7a.Emscripten.clang"
  },
  "schemaVersion": "3.4.16",
  "updatedAt": "2024-08-24T17:04:38.346Z",
  "devdoc": {
    "kind": "dev",
    "methods": {},
    "version": 1
  },
  "userdoc": {
    "kind": "user",
    "methods": {},
    "version": 1
  }
}